:020000040800F2
:10000000480C002091010008C32500084D1F00087E
:10001000C125000819070008932D00080000000002
:10002000000000000000000000000000212A00087D
:100030005307000800000000D1260008712B0008BB
:10004000AB010008AB010008AB010008AB010008E0
:10005000AB010008AB010008AB010008AB010008D0
:10006000AB010008AB010008AB0100081D07000848
:10007000AB010008AB010008AB010008AB010008B0
:10008000AB010008AB010008AB010008AB010008A0
:10009000AB0100080000000000000000AB010008F8
:1000A0000000000000000000000000000000000050
:1000B000AB010008AB010008AB010008AB01000870
:1000C000AB010008AB010008AB010008AB01000860
:1000D000AB010008AB010008AB010008AB01000850
:1000E000AB010008AB010008AB01000800F002F80A
:1000F00000F03FF80AA090E8000C82448344AAF183
:100100000107DA4501D100F034F8AFF2090EBAE880
:100110000F0013F0010F18BFFB1A43F0010318473B
:1001200080300000A0300000103A24BF78C878C1A9
:10013000FAD8520724BF30C830C144BF04680C60ED
:10014000704700000023002400250026103A28BF35
:1001500078C1FBD8520728BF30C148BF0B60704739
:10016000642900F07180002070471FB51FBD10B5D5
:1001700010BD00F0E2F91146FFF7F7FF02F022FE92
:1001800000F000FA03B4FFF7F2FF03BC00F008FA36
:100190000948804709480047FEE7FEE7FEE7FEE71B
:1001A000FEE7FEE7FEE7FEE7FEE7FEE70448054957
:1001B000054A064B70470000ED2B0008ED000008D3
:1001C00048060020480C002048080020480800206D
:1001D0000FB41CB5074B06AA7B44694600900598EE
:1001E00000F093F90020694600F0A2F91CBC5DF80C
:1001F00014FB00005503000070B5044685690068D3
:10020000C10601D5302600E02026C00707D070BD0A
:10021000D4E9012130469047206A401C20626D1EBF
:10022000F6D570BD70B5044685690078C00707D162
:1002300070BDD4E9012120209047206A401C206233
:100240006D1EF6D570BD00002DE9F0410646002474
:1002500010687529314616A510D0AFF3008000282C
:1002600002DA404213A507E031688A0701D512A5DA
:1002700002E0490704D511A5012401E0AFF3008095
:1002800000210A2206F1240709E0B0FBF2FCB0FBD2
:10029000F2F302FB1C00303078541846491C002849
:1002A000F3D123462A463046BDE8F04100F0CEB8EF
:1002B000000000002D0000002B00000020000000C6
:1002C0002DE9F05F894604464FF0000ADFF824B1BB
:1002D000FB44C0F820A02046E168884700287DD074
:1002E000252806D0D4E901219047206A401C2062CD
:1002F000F1E700255F462046E1688847202806464A
:1003000007DB312E05D2B81910F8200C08B10543CF
:10031000F1E7A80701D525F00405C4F81CA00027C3
:10032000C4F818A02A2E09D0304602F043FD38B395
:1003300004EB8708303EC8F8186019E059F8041B30
:10034000204604EB87029161E1688847012F064649
:1003500018D1E069002820DA25F020051DE0D8F842
:10036000180000EB800006EB40003038C8F8180099
:100370002046E1688847064602F01CFD0028EED1C1
:10038000012F0AD02E2E08D12046E16888477F1C15
:100390000646022F45F02005C4DBA069002803DAD9
:1003A000404245F00105A061E80701D025F01005A5
:1003B000A6B1A6F14100192802D8203645F40065FF
:1003C0004A463146204625604D46FFF7C9FE60B1DA
:1003D000012807D0ED1D25F0070000E007E000F13F
:1003E000080978E705F1040975E730467AE7206ADD
:1003F000BDE8F09FBA2E00004FF0000200B5134692
:1004000094469646203922BFA0E80C50A0E80C5034
:10041000B1F12001BFF4F7AF090728BFA0E80C50E5
:1004200048BF0CC05DF804EB890028BF40F8042BDE
:1004300008BF704748BF20F8022B11F0804F18BF4B
:1004400000F8012B70477047704770472DE9F0475F
:100450000D4699469246044600F124080168880634
:1004600004D5E06921F01001216000E00120A842DC
:1004700001DD471B00E00027A1697A1902EB0900A2
:10048000081AA0612078C00602D42046FFF7B4FE07
:10049000002608E0D4E901211AF806009047206AF6
:1004A000401C761C20624E45F4DB2078C0060AD53D
:1004B0002046FFF7A1FE06E0D4E901213020904755
:1004C000206A401C2062381EA7F10107F4DC07E017
:1004D000D4E9012118F805009047206A401C2062E9
:1004E000281EA5F10105F3DC2046FFF79BFE2078CE
:1004F000000602D50220BDE8F0870120FBE70000DE
:1005000001694A1C02610878704700B58FB0CDE9D7
:1005100001310021059105497944CDE903101146C7
:100520006846FFF7CDFE0FB000BD0000E5FFFFFFFE
:100530000A6802F8010B0A607047754600F02CF853
:10054000AE4605006946534620F00700854618B0C0
:1005500020B5FFF72BFEBDE820404FF000064FF01E
:1005600000074FF000084FF0000B21F00701AC46E8
:10057000ACE8C009ACE8C009ACE8C009ACE8C00907
:100580008D46704710B50446AFF300802046BDE8A5
:100590001040FFF7F7BD000000487047E805002055
:1005A00001491820ABBEFEE726000200704700009C
:1005B00070B5044600688168C943C90717D18168CE
:1005C00021F00101816000F01DFD05460AE000BF39
:1005D00000F018FD401B022804D920688068C04341
:1005E000C00706D020688068C043C007F0D0002054
:1005F00070BDA06A40F01000A062E06A40F0010007
:10060000E062012070BD10B50146406A826A12F0B6
:10061000500F05D0006A026BBDE810400846104735
:10062000816A41F40071816201688968C1F34241C5
:1006300007290CD1017B51B9816A21F48071816253
:10064000816AC90403D4816A41F00101816200F02A
:100650008FF910BD10B5406A816A41F04001816296
:10066000C16A41F00401C16200F084F910BD10B507
:10067000406A00F07EF910BDF8B5002604460096E9
:1006800000688168C943C9072DD0816841F0010124
:100690008160164816490068B0FBF1F000E0401E8A
:1006A00000900028FBD100F0ADFC054616E000BF2D
:1006B00000F0A8FC401B022810D920688068C043C5
:1006C000C0070BD0A06A40F01000A062E06A40F0C2
:1006D0000100E06284F824600120F8BD2068806891
:1006E000C043C007E4D10020F8BD00003400002062
:1006F00040420F0030B440F6FF74B0F5805F00D385
:100700002046551A4543B5FBF4F008440BB18B184D
:10071000181A30BC01F0D4BFFEE70000014800F019
:1007200069BA0000C004002030B590F840500124A0
:10073000AC40C56B6C60046863604368102B036851
:1007400003D099600068C26030BD9A600068C160E3
:1007500030BD704772B6FEE7322000F003B88C203F
:10076000AFF3008010B5322801D2322002E08C288D
:1007700000D98C200849096888630421064801F0E3
:100780007BFB4FF47A7000F045FBBDE8104004217C
:10079000014801F0B3BB0000A0050020F8B500251A
:1007A0000446009590F8240001280BD0012084F81D
:1007B00024002046FFF7FCFE2046FFF75DFF060001
:1007C00002D050E00220F8BDA06A20F4885040F02A
:1007D0000200A062022000F03DFE25490968B1FB3D
:1007E000F0F0400000E0401E00900028FBD120689F
:1007F000816841F00801816000F004FC074608E0D0
:1008000000F000FCC01B0A2803D92068806800079C
:1008100015D4206880680007F2D42068816841F010
:100820000401816000F0EEFB074612E000F0EAFBF5
:10083000C01B0A280DD920688068400709D5A06A26
:1008400020F0020040F01000A06284F82450012043
:10085000F8BD206880684007E8D4A06A20F0020054
:1008600040F00100A06284F824503046F8BD00003A
:1008700034000020F8B50024009490F82420254688
:10088000012A12D0012280F824204A681F23072A57
:100890000DD20668776B521E02EB820293409F4393
:1008A0000B6893401F43776319E00220F8BD066888
:1008B0000D2A0AD2376BD21F02EB820293409F436C
:1008C0000B6893401F43376309E0F76A0D3A02EB68
:1008D000820293409F430B6893401F43F7620A686C
:1008E000072306680A2A0AD3F7680A3A02EB42028B
:1008F00093409F438B6893401F43F76008E037693C
:1009000002EB420293409F438B6893401F43376141
:100910000A68102A01D0112A20D1124B02689A428B
:1009200017D193681B0219D4936843F400039360B2
:100930000968102912D10C490C4A0968B1FBF2F17F
:1009400001EB8101490000E0491E00910029FBD123
:1009500004E0816A41F020018162012480F8245082
:100960002046F8BD002401403400002040420F0022
:1009700070477047704700002DE9F0414FF00007C5
:1009800004003D467ED0A06A002628B9E66284F8BD
:100990002460204600F07EF82046FFF709FEA16A99
:1009A000C90600D420B1A06A40F01000A06269E03E
:1009B000A16A21F4885141F00201A1626268E169F3
:1009C000237B0A4347EA43010A43A1684FF4807737
:1009D000B94209D0012907D05FF0000194F814C092
:1009E000BCF1010F02D00AE03946F7E7F3B1A36A80
:1009F00043F02003A362E36A43F00103E362236848
:100A0000D3F804C02CF4694C4CEA010CC3F804C0C0
:100A100021688B68DFF870C003EA0C0313438B6016
:100A2000A168B9420BD0012909D00CE0DFF85CC005
:100A3000A3690CEB43330B4343F40061DFE7218AE6
:100A40000D05A5F580152168CB6A23F470032B43AF
:100A5000CB62216889680E4B1940914208D1E66249
:100A6000A16A21F0020141F00101A162BDE8F0811B
:100A7000A06A20F0020040F01000A062E06A40F09E
:100A80000100E0620120F1E7FDF7E1FF00E0FFFF78
:100A9000FE0E1FFF70B586B0002506460095019535
:100AA0000295039500681A4988422ED11949886930
:100AB00040F400708861886900F4007004908869CF
:100AC00040F0040088618869694600F004000490E1
:100AD0001F200090032001900F4800F0ADF9104C4A
:100AE0000E48C4E900058020C4E90250400020619E
:100AF000800060612020C4E90605204600F024F94A
:100B000008B1FFF727FE3462666206B070BD0000D0
:100B1000002401400010024000080140080002408B
:100B2000C00400202DE9F041044690F82400164648
:100B30000F4601280ED0012084F824002046FFF73C
:100B40009BFD05004FF0000006D084F824002846E5
:100B5000BDE8F0810220FBE7A16A40F60162914303
:100B600041F48071A162A16A21F48011A16221681F
:100B70004968490505D5A16A21F4005141F4805125
:100B8000A162A16AC90404D5E16A21F00601E1620B
:100B900000E0E06284F82400216A13488862216A38
:100BA0001248C862216A1248086321686FF0020087
:100BB00008602068816841F4807181602168334653
:100BC0003A464C31206A00F0EDF820688168C1F3A4
:100BD00042410729816803D041F480118160B6E762
:100BE00041F4A001FAE70000070600086F060008BC
:100BF000550600082DE9F05FC16B0C6801680B68B1
:100C0000D0F840C0042202FA0CF2494DDFF824A1CA
:100C1000494E4A4FDFF828B1DFF828E122422CD0B4
:100C20005A072AD50A68920603D40A6822F00402F9
:100C30000A600168A94201D1042219E0514501D19D
:100C4000402215E0B14202D14FF4806210E0B94277
:100C500002D14FF480420BE0594502D14FF480227B
:100C600006E0714502D14FF4800201E04FF080624E
:100C70002F4908394A60C16A3BE04FF0020808FA80
:100C80000CF818EA040F4FF000094FF0010235D0BC
:100C90005FEA837832D50B689B0605D40B6823F096
:100CA0000A030B6080F821200168A94201D10222C9
:100CB00019E0514501D1202215E0B14202D14FF493
:100CC000007210E0B94202D14FF400520BE05945D6
:100CD00002D14FF4003206E0714502D14FF4001208
:100CE00001E04FF00072124908394A6080F8209004
:100CF000816A00291AD0BDE8F05F0847082505FA87
:100D00000CF5254212D01B0710D50B6823F00E03FB
:100D10000B6090F84010C36B02FA01F159608263D6
:100D200080F8212080F82090016BE2E7BDE8F09F79
:100D3000080002401C000240300002404400024013
:100D4000580002406C00024030B528B308C813496F
:100D500014221944B1FBF2F18900C1631049816387
:100D6000022141771A6843F6F0718A43D0E90014F2
:100D70002143D0E902452C432143046921434469BE
:100D800021438469214311431960002141630122F9
:100D900042770177084630BD012030BDF8FFFDBF26
:100DA0000000024070B5044690F82000002501289C
:100DB0000CD0012084F8200094F821600020012E3E
:100DC00006D084F820000225284670BD022070BDA0
:100DD000022684F82160A0632068066826F00106D8
:100DE00006602046FFF7A0FCE06A00282068016842
:100DF00002D041F00E0106E021F0040101602068FC
:100E0000016841F00A0101602068016841F00101B8
:100E10000160D9E770B5044600F0F4F80546601C9F
:100E200002D004480078044400F0ECF8401BA042D3
:100E3000FAD370BD280000202DE9F84FDFF89C910F
:100E40000024A9F1040B23460F2709F1040AABF192
:100E5000040EBBE00125A5402A40AA4276D1DFF866
:100E600080C14E68A6EB0C0866452BD00DDC032E26
:100E700034D005DC36B3012E19D0022E2FD11BE061
:100E8000112E16D0122E2AD119E0B8F5881F19D0CC
:100E900006DCB8F5803F15D0B8F5801F1FD111E0F2
:100EA000B8F5001F0ED0B8F5041F18D10AE0CB68C2
:100EB00015E0CB681B1D12E0CB6808330FE0CB6850
:100EC0000C330CE08B682BB1012B4FF0080303D0DF
:100ED000456104E0042302E0056100E00023FF2AED
:100EE00001D8064601E000F104064FEA840501D965
:100EF000A5F12005D6F8008007FA05FC28EA0C08C1
:100F000003FA05F548EA0508C6F800804D68ED00CB
:100F10005BD5344DAE6946F00106AE61AD6924F093
:100F2000030605F0010500952F4D06EB050CDCF8D6
:100F30000850A607360F07FA06F825EA0805DFF875
:100F4000AC80404503D14FF0000810E03DE0DFF8F1
:100F5000A080404502D14FF0010808E0DFF89480FE
:100F6000404502D14FF0020801E04FF0030808FAB3
:100F700006F848EA0508CCF808804D68D9F8006002
:100F8000ED024D4601D5164300E096432E604D68B4
:100F9000DAF80060AD02554601D5164300E09643ED
:100FA0002E604D68DBF80060AD035D4601D5164349
:100FB00000E096432E604D68DEF80060ED03754654
:100FC00001D5164300E096432E60641C0A6832FA8D
:100FD00004F57FF43FAFBDE8F88F0000080401403E
:100FE0000000111000100240000001400008014004
:100FF000000C0140001001408068084000D0012032
:1010000070470000014880687047000028000020F9
:1010100070B5040025D094F83D00002520B984F86F
:101020003C50204600F04EF9242084F83D00206812
:10103000016821F0010101602068016841F400416C
:1010400001602068016821F40041016000F060FB4C
:101050004D4A6168914201D84C4900E04C498842B0
:1010600001D2012070BD4B492368B0FBF1F15E68ED
:1010700026F03F060E435E606368934206D94FF444
:10108000967359434FF47A73B1FBF3F12368491C0B
:101090001E6A26F03F06314319626168914210D8FA
:1010A0004900401EB0FBF1F2521CC2F30B02042AAD
:1010B00001D2042022E0B0FBF1F0401CC0F30B0091
:1010C0001CE0A268F2B301EBC10303EB0116431E5F
:1010D000B3FBF6F35B1C43F480431B0549D092B38A
:1010E00001EBC10202EB0111401EB0FBF1F0401C0C
:1010F000C0F30B0040F4804040F400402168CA690E
:101100004CF6FF739A431043C861D4E907100143BA
:101110002068026822F0C00211430160D4E9030193
:1011200001432068826848F2FF339A43114381608B
:10113000D4E9050108432168CA6822F0FF02104380
:10114000C86001E00EE016E02068016841F001018E
:1011500001602564202084F83D00256384F83E501A
:10116000002070BD01EB4106431EB3FBF6F35B1C90
:10117000B3E70120C2E701EB4101401EB0FBF1F0F3
:10118000401CC0F30B00B7E7A086010080841E005E
:1011900000093D0040420F002DE9F84F1F469046E0
:1011A0008A460446DDF82890FFF72CFF054694F8A0
:1011B0003D0020287FD11923012240492046009577
:1011C00000F056FF002876D194F83C00012872D038
:1011D000012084F83C0020680168C90703D1016838
:1011E00041F0010101602068016821F400610160A3
:1011F000212084F83D00102084F83E00002626645B
:10120000C4F824806785608D20852D48E0622B46D8
:101210004A465146204600F0B1FE90B92068416927
:101220008069009036E02A464946204600F0C6FF15
:1012300050B1206C042804D12068016841F4007189
:1012400001600120BDE8F88F606A216800780861BC
:10125000606A401C6062618D491E6185218D491E56
:1012600089B2218522685369DB435B070BD451B1F6
:1012700000781061606A401C6062608D401E60856D
:10128000208D401E20852A464946204600F0C4FE97
:101290000028CED1208D0028C5D154F83D0B01681F
:1012A00041F400710160202004F81E09E67766779A
:1012B0000020C7E7FFE70220C4E70000020010009B
:1012C0000000FFFF10B586B000210091019102914E
:1012D00003910068104988421BD1104CA06940F06E
:1012E0000800A061A069694600F0080004904FF46E
:1012F0004060009012200190032003900848FFF7FF
:101300009BFDE06940F48000E061E06900F480004A
:10131000049006B010BD00000058004000100240CC
:10132000000C0140024881680278114481607047D6
:1013300028000020074810B5016841F01001016045
:10134000032000F075F80F2000F006F800F024F8F4
:10135000002010BD0020024070B50D4D04464FF432
:101360007A712878B1FBF0F00A490968B1FBF0F016
:1013700000F0A4FB48B9102C07D200222146501ED1
:1013800000F036F800206C6070BD012070BD0000D8
:1013900028000020340000200C4808B5816941F085
:1013A00001018161816901F001010091C16941F090
:1013B0008051C161C06900F08050009004484168CC
:1013C00021F0E06141F00071416008BD0010024071
:1013D00000000140002809DB00F01F0201219140BC
:1013E0004009800000F1E020C0F8001170470000C3
:1013F000F0B40E4B1B680C46C3F30223C3F1070580
:10140000042D00D90425191D072901D2002300E06D
:10141000DB1E012606FA05F1491E214099409E4037
:10142000761E16403143F0BC01F0B4BC0CED00E078
:10143000064900F0070208684FF6FF03184040EA2B
:101440000220034A10430860704700000CED00E0E2
:101450000000FA0510B501460020234C012922D0D6
:10146000022939D010291DD161682268D20119D50D
:101470001E48C1F38342C903805C0AD561681B4AD8
:10148000C1F34041921E515C194AB2FBF1F148434D
:1014900001E0184948436168490203D44000032130
:1014A000B0FBF1F010BD226AC2F30121012903D182
:1014B000920701D5C80310BD022905D1626A9207BF
:1014C00002D549F6404010BD0329FCD121688903AB
:1014D000F9D54FF2244010BD00F02AF96168C1F33C
:1014E0008131491C4900DBE70010024066310008E9
:1014F00000127A0000093D002DE9F8430546007806
:10150000354CC00754D0E0690026C00008D4E0691B
:1015100040F08050E061E069012600F080500090CA
:101520002E480168C90512D40168804641F48071D3
:101530000160FFF767FD074605E000BFFFF762FDAA
:10154000C01B642823D8D8F80000C005F6D5206A4F
:1015500010F4407021D0A98801F4407181421CD060
:10156000206A1F49012220F440700A6000220A60AC
:101570002062C00711D0FFF745FD074641F28838C9
:1015800008E000BFFFF73EFDC11B414502D9032023
:10159000BDE8F883206A8007F4D5206A696820F4E2
:1015A0004070084320621EB1E06920F08050E06185
:1015B0002878800705D56068A96820F44040084372
:1015C00060602878C00605D56068E96820F480006E
:1015D000084360600020DBE700100240007000401C
:1015E000400442422DE9F0470F46050061D0434ECA
:1015F000306800F00700B84209D2306820F00700D8
:1016000038433060306800F00700B84251D1286894
:101610003B4C810712D5400703D5606840F4E06079
:1016200060602878000703D5606840F4605060600F
:101630006068A96820F0F000084360602878C0075F
:1016400028D06868012810D02168022810D08907A6
:1016500000292EDA616821F0030101436160FFF780
:10166000D1FC804641F288390DE021688903EFE71B
:101670008901EDE7FFF7C6FCA0EB0801494502D957
:101680000320BDE8F0876068696800F00C00B0EBEB
:10169000810FEFD1306800F00700B8420BD93068F5
:1016A00020F0070038433060306800F00700B8428F
:1016B00001D00120E5E72878400705D56068E96892
:1016C00020F4E060084360602878000706D5606871
:1016D000296920F4605040EAC100606000F038F8E9
:1016E0006168084AC1F30311515CC84006490860AB
:1016F00006480068FFF730FE0020C2E700200240E5
:101700000010024076310008340000202C00002038
:101710000448054900684968044AC1F30221515C44
:10172000C840704734000020001002408631000895
:101730000448054900684968044AC1F3C221515C64
:10174000C840704734000020001002408631000875
:101750000E4A51680E4801F00C03042B11D0082BDF
:101760000FD10C48C1F38343C903C05C0AD551684B
:10177000084AC1F34041921E515C054A5043B0FBF8
:10178000F1F07047044948437047000000100240E0
:1017900000127A005431000800093D002DE9F84F8D
:1017A000040070D02078C04DC00749D06868C0F3ED
:1017B0008100012807D06868C0F38100022809D1A0
:1017C0006868C00306D52868800339D5606800289A
:1017D000E7D035E06068B0F5803F0BD010B1B0F5D0
:1017E000A02F11D0286820F480302860286820F4C9
:1017F000802002E0286840F480302860606890B162
:10180000FFF700FC06460AE0286840F480202860C4
:10181000F0E700BFFFF7F6FB801B642873D8286849
:101820008003F7D50CE0FFF7EDFB064605E000BFAF
:10183000FFF7E8FB801B6428F0D828688003F7D402
:1018400020789A4E80074FF001094FF0000839D5F3
:10185000686810F00C0F07D06868C0F38100022898
:1018600009D16868C00306D42868800714D52069A8
:10187000012808D110E02069B0B1C6F80090FFF748
:10188000C1FB074605E00AE1FFF7BCFBC01B0228CD
:10189000C4D828688007F7D52868616920F0F80067
:1018A00040EAC10028600DE0C6F80080FFF7AAFBFF
:1018B000074604E0FFF7A6FBC01B022823D82868D0
:1018C0008007F7D4207800072CD57948A169D9B1D1
:1018D000C0F80090FFF796FB074604E0FFF792FB85
:1018E000C01B02280FD8686A8007F7D571484FF4EB
:1018F000FA510068B0FBF1F0009000BF0098411E63
:101900000091FAD20EE080E0C0F80080FFF77AFB89
:10191000074604E0FFF776FBC01B022875D8686A0B
:101920008007F7D42078400760D5E8690027C00019
:1019300008D4E86940F08050E861E869012700F0C8
:10194000805000905C480168C90513D40168834643
:1019500041F480710160FFF755FB824606E000BF4D
:10196000FFF750FBA0EB0A0064284ED8DBF800001C
:10197000C005F5D5E06801280AD008B1052813D0C4
:10198000286A20F001002862286A20F0040002E0A2
:10199000286A40F001002862E06841F2883B98B173
:1019A000FFF730FB82460BE0286A40F00400286213
:1019B000EEE700BFFFF726FBA0EB0A0159455AD816
:1019C000286A8007F6D50CE0FFF71CFB824605E08D
:1019D000FFF718FBA0EB0A0159454CD8286A80078D
:1019E000F6D41FB1E86920F08050E861E06988B35F
:1019F0006968C1F38101022944D00228C6F86080D9
:101A000004D0FFF7FFFA044638E034E0FFF7FAFAB3
:101A1000074604E0FFF7F6FAC01B02282BD8286817
:101A20008001F7D4206AB0F5803F05D16868A168CD
:101A300020F4003008436860D4E90801084369686D
:101A400021F4741108436860C6F86090FFF7DAFA71
:101A5000044606E025E000BFFFF7D4FA001B022889
:101A600009D828688001F7D51BE000BFFFF7CAFA44
:101A7000001B022802D90320BDE8F88F28688001E6
:101A8000F4D40EE00128F7D06868226A00F48031AF
:101A9000914204D1616A00F47010884201D00120A3
:101AA000EAE70020E8E700000010024000004242A0
:101AB00080044242340000200070004010B5401EF7
:101AC000B0F1807F01D3012010BD4FF0E0246061B0
:101AD0000F21601701F05EF90020A061072020614E
:101AE000002010BD70B590F83C20012A23D00124BD
:101AF00080F83C40022280F83D2003685A689D68C7
:101B000022F070060A6832435A600268B2F1804FD0
:101B100005D00A4B9A4202D0094B9A4204D1496837
:101B200025F080031943916080F83D40002180F842
:101B30003C10084670BD022070BD0000000400404B
:101B40000008004010B5040003D094F83D0010B127
:101B500007E0012010BD002084F83C00204600F082
:101B60001FF8022084F83D00211D206801F040F894
:101B7000012084F8460084F83E0084F83F0084F891
:101B8000400084F8410084F8420084F8430084F85F
:101B9000440084F8450084F83D00002010BD00009A
:101BA00008B50C4A01680C48914207D1C16941F05F
:101BB0000201C161C06900F0020009E0074A9142D8
:101BC00007D1C16941F00401C161C06900F004009E
:101BD000009008BD000400400010024000080040D2
:101BE00070B5044690F83C000025012817D0012666
:101BF00084F83C60022084F83D002068826822F06E
:101C0000770222F47F4282600868502838D00DDCC9
:101C100020284FD005DC90B3102811D14AE00220D3
:101C200070BD302846D040280AD13BE060282FD034
:101C300070280DD0B0F5805F03D0B0F5005F12D0F2
:101C4000012584F83D60002084F83C00284670BDE2
:101C5000CB68D1E90121206801F009F8206881688A
:101C600041F0770109E0CB68D1E90121206800F05B
:101C7000FEFF2068816841F480418160E1E719E05E
:101C8000CA684968206801F061F85021206806E0C0
:101C9000CA684968206801F06AF86021206800F08D
:101CA000F0FFCEE7CA684968206801F04FF840218C
:101CB0002068F4E7226801461046F0E730B585B0A9
:101CC000002100910191029103911C4B02681C4973
:101CD000C02002241B4D9A421BD18A6942F00402A3
:101CE0008A618A6902F0040204928A6942F0080259
:101CF0008A618969CDE9000401F00801CDE9034159
:101D000069461148FFF798F80320CDE900040394D1
:101D10000DE00E4B9A420ED18A6942F008028A61A8
:101D20008969CDE9000401F00801CDE90341694664
:101D30002846FFF781F805B030BD000000040040E0
:101D400000100240000C0140000801400008004063
:101D500070B5044690F83C0000260D4601280FD0CF
:101D6000012084F83C006AB1042A1DD0082A2FD033
:101D70000C2A3FD00126002084F83C00304670BD7C
:101D8000022070BD206800F084FF2068816941F066
:101D9000080181612068816921F004018161206866
:101DA00081692A69114311E0206800F088FF2068EA
:101DB000816941F4006181612068816921F4806159
:101DC0008161206881692A6941EA02218161D2E743
:101DD000206800F08CFF2068C16941F00801C161F2
:101DE0002068C16921F00401C1612068C1692A69C4
:101DF000114311E0206800F091FF2068C16941F4AF
:101E00000061C1612068C16921F48061C1612068FD
:101E1000C1692A6941EA0221C161ACE710B5040039
:101E200003D094F83D0010B107E0012010BD002060
:101E300084F83C00204600F01EF8022084F83D00A3
:101E4000211D206800F0D4FE012084F8460084F8AB
:101E50003E0084F83F0084F8400084F8410084F894
:101E6000420084F8430084F8440084F8450084F874
:101E70003D00002010BD704710B50446022249B154
:101E800004290ED0082913D094F84100012816D057
:101E9000012010BD94F83E000128F9D184F83E20BD
:101EA0000FE094F83F000128F2D184F83F2008E0C9
:101EB00094F840000128EBD184F8402001E084F838
:101EC00041200122206800F0C5FE2068B0F1804F5B
:101ED00005D00849884202D00749884204D1816868
:101EE00001F00701062903D0016841F001010160FA
:101EF000002010BD000400400008004030B504463A
:101F00000D460068002200F0A5FE2068016A41F23B
:101F10001112114207D1016A9210114203D10168D6
:101F200021F00101016001203DB1042D08D0082DF0
:101F300009D084F84100002030BD84F83E00FAE763
:101F400084F83F00F7E784F84000F4E7FEE7016813
:101F50004A69D24352050FD46FF480624A6100216E
:101F600040F8301F202242738173026942F004025C
:101F7000026101730120704700207047F8B50446E4
:101F8000C06A1E460D461746082807D0012805D00E
:101F900010F5803F02D0206B122804D12068016820
:101FA00041F480710160134600224FF00111204678
:101FB000009600F05DF840B120680068C00502D5C9
:101FC0004FF4007020640320F8BD2069B0F5804F05
:101FD0000ED00620216800EAD51040F0F00008611C
:101FE00033463A460B49204600F08AF878B902E0B9
:101FF00005F0FE0000E0E8B22168086105493346BB
:102000003A46891F204600F07BF80028DCD00120EA
:10201000F8BD00000800010070B516460D460446E4
:102020001EE02046FFF793FF08B1012070BD681C39
:1020300016D0FEF7E7FF801BA84200D885B92068BC
:102040004069C04340070BD5002044F8300F2021E1
:102050006173A073216941F0200121612073E4E7DD
:1020600020684069C0434007DBD4002070BD0000F9
:102070002DE9F047984617460D460446C1F307463A
:10208000DDF820902AE000BFB8F1FF3F26D0FEF730
:10209000B9FFA0EB0901414502D8B8F1000F1DD1ED
:1020A0002068012E16D0806925EA00000004000C8B
:1020B00012D00020B84211D1002044F8300F202166
:1020C0006173A073216941F0200121612073012017
:1020D000BDE8F0874069E7E70120EBE72068012EC3
:1020E0000AD0806925EA00000004000C06D0002018
:1020F000B842C9D00020EBE74069F3E70120F7E7D9
:102100002DE9F047984616460D4604464FF0000963
:102110004FF0200AC1F3074723E020684069C0431D
:10212000400515D42068016841F400710160216800
:102130006FF480604861C4F8309084F83DA084F862
:102140003E90216C41F00401216484F83C9021E030
:10215000701C06D0FEF756FFA0EB0800B04203D873
:1021600016B1012F1FD021E02068012F15D0806902
:1021700025EA00000004000C18D000BF44F8309F8E
:1021800084F80DA084F80E90216941F020012161AE
:1021900084F80C900120BDE8F087406925EA000032
:1021A0000004000CEAD12068406901E020688069E1
:1021B00025EA00000004000CAFD1ECE770B516462C
:1021C0000D4604461EE02046FFF7C1FE08B101207F
:1021D00070BD681C16D0FEF715FF801BA84200D802
:1021E00085B920684069C04300060BD5002044F83B
:1021F000300F20216173A073216941F0200121611A
:102200002073E4E720684069C0430006DBD4002067
:1022100070BD00002DE9F041314C4FF4805600258F
:1022200031462046FEF7E8FE70B91420FEF7F2FDB5
:1022300031462046FEF7E0FE30B901253146204602
:10224000FEF7DAFE0028F9D04FF40056314620465A
:10225000FEF7D2FE90B91420FEF7DCFD3146204691
:10226000FEF7CAFE50B9022531462046FEF7C4FEED
:102270000028F9D04FF49670FEF7CCFD4FF480465D
:1022800031462046FEF7B8FE70B91420FEF7C2FDB5
:1022900031462046FEF7B0FE30B9032531462046D0
:1022A000FEF7AAFE0028F9D04FF40047394626462B
:1022B0002046FEF7A1FE78B91420FEF7ABFD3C46A0
:1022C00039463046FEF798FE30B90425214630469F
:1022D000FEF792FE0028F9D02846BDE8F081000004
:1022E000000C0140FEB500242448009401942249CA
:1022F0000294016089158160012505730475052626
:1023000006614FF460214460C161FEF735FB08B1FE
:10231000FEF720FA8DE8700069461848FEF7AAFA21
:1023200008B1FEF717FA0224CDE9005469461348B4
:10233000FEF7A0FA08B1FEF70DFA009403246946EF
:102340000E480194FEF796FA08B1FEF703FA0094DE
:102350000424694609480194FEF78CFA08B1FEF797
:10236000F9F9CDE9004669460448FEF783FA0028EA
:1023700001D0FEF7EFF9FEBD0024014090040020DB
:10238000094808B5416941F00101416140690022F5
:1023900000F00100009011460B20FFF729F8BDE87E
:1023A00008400B20FFF716B80010024000B585B0BA
:1023B0000020019003901248816941F02001816161
:1023C000816901F020010491816941F0040181617A
:1023D000816901F004010491816941F00801816182
:1023E0008069694600F0080004904FF47040009046
:1023F000012002900348FEF71FFD05B000BD00005C
:1024000000100240000C01400D4810B50B4901605E
:102410000C49416000214FF480428160C0E9031201
:1024200041618161C1610162FEF7F2FD002803D0C4
:10243000BDE81040FEF78EB910BD00000058004006
:1024400004050020A086010010B58EB0002407947A
:10245000089409940A940B941C2168460C94FDF787
:10246000CBFF2B482949016040F2CF21C0E901147C
:1024700040F2CF71C0E903148461FFF763FB08B138
:10248000FEF768F94FF48050079007A92048FFF73E
:10249000A7FB08B1FEF75EF91D48FFF7BFFC08B1C6
:1024A000FEF758F90B940BA919480C94FFF71AFB87
:1024B00008B1FEF74FF96020CDE900040294002234
:1024C000694613480494FFF743FC08B1FEF742F94C
:1024D000042269460E48FFF73BFC08B1FEF73AF9C3
:1024E000082269460A48FFF733FC08B1FEF732F9C3
:1024F0000C2269460648FFF72BFC08B1FEF72AF9C3
:102500000348FFF7DBFB0EB010BD000000040040E5
:102510005805002010B58EB0002407940894099443
:102520000A940B941C2168460C94FDF765FF234820
:102530002149016040F2CF21C0E9011440F2CF717E
:10254000C0E903148461FFF7FDFA08B1FEF702F950
:102550004FF48050079007A91848FFF741FB08B1D6
:10256000FEF7F8F81548FFF759FC08B1FEF7F2F846
:102570000B940BA911480C94FFF7B4FA08B1FEF7BD
:10258000E9F86020CDE900040294002269460B4876
:102590000494FFF7DDFB08B1FEF7DCF8042269467E
:1025A0000648FFF7D5FB08B1FEF7D4F80348FFF75C
:1025B00085FB0EB010BD000000080040A005002003
:1025C000FEE7FEE710B50446B031C8B200F054F89B
:1025D000102040EA141000F04FF804F00F00BDE89E
:1025E000104000F049B800002DE9F04186B000220B
:1025F00020246B469C54521CD2B2152AFAD30022D6
:102600008DF8152002E09C54521CD2B28C5C0CB1A7
:10261000152AF8D3002480461E4624E0A2F12003A8
:10262000204641465F2B00D32022203AD7B2FFF745
:10263000C9FF104907EB4700002501EB4007785D13
:1026400000F02CF86D1CEDB2062DF8D3A41DE4B2F9
:102650007A2C07D908F10100002400F0FF08B8F136
:10266000080F03D2761C3278002AD7D106B0BDE815
:10267000F0810000182F00081CB500218DF804100F
:102680008DF8050064200090022301AA78210248F9
:10269000FEF782FD1CBD0000040500201CB5402192
:1026A0008DF804108DF8050064200090022301AA23
:1026B00078210248FEF770FD1CBD000004050020D3
:1026C000884200DA0846904200DD104680B270472A
:1026D000704700002DE9F04F554887B00188022966
:1026E0007ED3002597E000BF524E05EB8504012301
:1026F00036F81400E1224B21FDF7FCFF06EB440401
:10270000834660880123E1224B21FDF7F3FF8246D7
:10271000A0880123E1224B21FDF7ECFF8146E088F0
:102720000123E1224B21FDF7E5FF07462089012324
:10273000E1224B21FDF7DEFF064660890123E122FD
:102740004B21FDF7D7FF8046A0890123E1224B21D1
:10275000FDF7D0FF0290E0890123E1224B21FDF734
:10276000C9FF0190208A0123E1224B21FDF7C2FF1E
:102770000090608A0123E1224B21FDF7BBFFA8EB0B
:102780000B01049102990024A1EB0A010391019924
:10279000A1EB090102910099C91B801B05910190D1
:1027A00004984FF0640C604390FBFCF101EB0B00CC
:1027B000039980B2614391FBFCF202EB0A01029A99
:1027C00089B2624392FBFCF303EB0902059B92B2D0
:1027D000634393FBFCF33B449BB2DDF8048000E0D1
:1027E0001FE008FB04F898FBFCFCB4441FFA8CFCC7
:1027F000CDF800C000F04EF90F20FEF70BFB641C73
:10280000A4B2642CCCD90C482844407860B1FDF7C0
:10281000A3FF6D1CADB206480088401E8542FFF63E
:1028200063AF07B0BDE8F08FFDF799FFF1E7000057
:102830000A00002038000020200400200149002068
:10284000088070470A00002030B5174A1388642BAF
:1028500028D20488138803EB8305144B23F8154012
:102860004488158805EB850503EB45056C80848855
:10287000158805EB850503EB4505AC80C4881588F4
:1028800005EB850503EB4505EC800089148804EB16
:10289000840403EB4403188105481388C15410884D
:1028A000401C108030BD00000A00002038000020CD
:1028B0002004002070B56420FEF7ACFAAE20FFF7CC
:1028C000DBFE2020FFF7D8FE1020FFF7D5FEB0205A
:1028D000FFF7D2FEC820FFF7CFFE0020FFF7CCFEA7
:1028E0001020FFF7C9FE4020FFF7C6FE8120FFF74A
:1028F000C3FE7F20FFF7C0FEA120FFF7BDFEA6208C
:10290000FFF7BAFEA820FFF7B7FE3F20FFF7B4FE9F
:10291000A420FFF7B1FED320FFF7AEFE0020FFF7A3
:10292000ABFED520FFF7A8FE8020FFF7A5FED9203B
:10293000FFF7A2FEF120FFF79FFEDA20FFF79CFED3
:102940001220FFF799FEDB20FFF796FE4020FFF7ED
:1029500093FE8D20FFF790FE1420FFF78DFEAF2031
:10296000FFF78AFE002421460020FFF72BFE0025FA
:102970000020FFF793FE6D1CEDB2802DF8D3641C90
:10298000E4B2082CEFD370BD70B50C4686B01E467D
:1029900015460EA10020FFF727FE0DB10EA100E0A5
:1029A00011A10220FFF720FE324613A16846FDF771
:1029B0000FFC69460420FFF717FE2CB112A1062078
:1029C000FFF712FE06B070BD12A1F8E7526F626FFA
:1029D000742041726D0000004D6F64653A20506CA8
:1029E00061796261636B00004D6F64653A204D61EF
:1029F0006E75616C00000000506F696E74733A2050
:102A00002530336400000000477269703A20436C3F
:102A10006F736500477269703A204F70656E0000F1
:102A200070470000064996200A6850630A68906360
:102A30000A68D063096808640249096848637047F6
:102A400058050020A0050020884201D9421A00E064
:102A50000A1A022A00DA08467047000010B5002161
:102A60000A48FFF709FA04210848FFF705FA082188
:102A70000648FFF701FA0C210448FFF7FDF9BDE80D
:102A8000104000210248FFF7F7B900005805002068
:102A9000A005002070B5074C049D2668706320686F
:102AA00081632068C263206803640348006845634B
:102AB00070BD000058050020A00500202DE9F0475A
:102AC000044600880123E1224B21FDF713FE054651
:102AD00060880123E1224B21FDF70CFE0646A08809
:102AE0000123E1224B21FDF705FE8246E088012308
:102AF000E1224B21FDF7FEFD074620890123E1225B
:102B00004B21FDF7F7FD174C814628462188FFF73A
:102B10009BFF054661883046FFF796FF8046A188F7
:102B20005046FFF791FF0646E1883846FFF78CFFD5
:102B3000074621894846FFF787FF0B490A68556316
:102B40000B68C3F838800A68D66309680F640749C0
:102B5000096848632580A4F80280A680E780208168
:102B6000BDE8F0870000002058050020A0050020E7
:102B7000FEF7D8BB30B593B028216846FDF73CFC82
:102B800014210AA8FDF738FC002501200F951095A7
:102B90001195010412958DE8230004904FF4E01084
:102BA000CDE90810022407946846FEF7F7FD08B146
:102BB00072B6FEE70AA90F2081E831004FF4806069
:102BC000CDE90D0502210AA8FEF70CFD08B172B689
:102BD000FEE74FF4004011900F940FA8FEF78CFC15
:102BE000002801D072B6FEE713B030BD7047000078
:102BF00070B502684FF08046144B154CB04203D0BC
:102C0000984201D0A04205D122F070054A682A43BB
:102C1000B04203D0984201D0A04203D122F44073C5
:102C2000CA681A434B6922F080021A4302608A681C
:102C3000C26209688162012141610169C90703D04B
:102C4000016921F00101016170BD00000004004034
:102C50000008004010B501F01F030121046A9940EB
:102C60008C430462016A9A401143016210BD10B5A1
:102C7000846842EA032224F47F440A4322438260A8
:102C800010BD826822F070020A4342F007018160A1
:102C9000704730B5036A026A22F00102026244689A
:102CA000826922F073050A682A4323F002058B68C3
:102CB00044602B43826149684163036230BD30B593
:102CC000046A026A22F010020262426883690D6897
:102CD00023F4E64343EA05238D6824F0200444EA04
:102CE00005144260836149688163046230BD30B578
:102CF000046A026A22F4807202624368C26924F4A0
:102D0000007422F073050A682A438D68436044EA20
:102D10000524C2614968C163046230BD30B5046AEC
:102D2000026A22F4805202624268C3690D6823F489
:102D3000E64343EA05238D6824F4005444EA05344D
:102D40004260C36149680164046230BD10B5036A22
:102D5000046A24F001040462846924F0F00444EA63
:102D6000021423F00A020A438461026210BD10B506
:102D7000036A046A24F010040462846923F0A00347
:102D800024F4704444EA023243EA01118261016290
:102D900010BDFEE70907090E002804DB00F1E02062
:102DA00080F80014704700F00F0000F1E02080F878
:102DB000141D704730380A2801D2012070470020C6
:102DC00070470000FEF7B6FAFFF7D4FEFFF7EEFA01
:102DD000FFF7D6FAFFF786FAFFF736FBFFF79AFB05
:102DE000FFF712FBFFF71EFEFFF738FE4FF47A786D
:102DF0004046FEF70FF84348FDF7D0FC0522424954
:102E00004048FDF78FFEFFF755FD404D2B88404CA5
:102E1000A27821780020FFF7B7FD3E4F3A4E4FF4DD
:102E200080594FF4005A4FF4804B00BFFFF7F2F97E
:102E3000607049463846FEF7DFF820715146384643
:102E4000FEF7DAF8607159463846FEF7D5F8A071FA
:102E50004FF400413846FEF7CFF8E071607820B1BA
:102E60006078E0706069401C606130882081708803
:102E70006081B088A081F088E0813089208260780C
:102E8000012806D0022807D0032820D004281BD10F
:102E90002BE0FFF7D3FC11E0A069401CA0610120EA
:102EA000A0702B88A27821786078FFF76DFDFFF77E
:102EB00011FC4046FDF7AEFF0020A0702B88A278E1
:102EC00021786078FFF760FDA07898B115E0207850
:102ED00030B100202070207820B1FDF73DFCEDE7F7
:102EE0000120F7E7FDF73BFCE8E721780648FFF70C
:102EF000ABFCE3E70448FFF7E1FD1420FDF78AFF90
:102F000094E7000090040020840400200A000020C0
:102F10000C000020000C0140000000000000000038
:102F20005F000000000700070000147F147F1400FA
:102F3000242A7F2A1200231308646200364955228E
:102F40005000000503000000001C22410000004169
:102F5000221C000014083E08140008083E0808005F
:102F600000503000000008080808080000606000F9
:102F700000002010080402003E5149453E00004276
:102F80007F4000004261514946002141454B3100DC
:102F90001814127F10002745454539003C4A49491D
:102FA00030000171090503003649494936000649D8
:102FB00049291E0000363600000000563600000089
:102FC00008142241000014141414140000412214A7
:102FD0000800020151090600324979413E007E1184
:102FE00011117E007F49494936003E41414122008E
:102FF0007F4141221C007F49494941007F0909095D
:1030000001003E4149497A007F0808087F000041DD
:103010007F4100002040413F01007F081422410011
:103020007F40404040007F020C027F007F04081078
:103030007F003E4141413E007F09090906003E41B3
:1030400051215E007F09192946004649494931004E
:1030500001017F0101003F4040403F001F20402010
:103060001F003F4038403F00631408146300070806
:1030700070080700615149454300007F414100004D
:103080000204081020000041417F000004020102F8
:103090000400404040404000000102040000205471
:1030A000545478007F484444380038444444200055
:1030B000384444487F00385454541800087E0901AD
:1030C00002000C5252523E007F0804047800004473
:1030D0007D4000002040443D00007F102844000057
:1030E00000417F4000007C04180478007C08040440
:1030F00078003844444438007C1414140800081440
:1031000014187C007C08040408004854545420001F
:10311000043F444020003C4040207C001C204020D4
:103120001C003C4030403C004428102844000C5017
:1031300050503C004464544C4400000836410000A8
:1031400000007F00000000413608000008082A1C2B
:103150000800010202030405060708090A0B0C0D0A
:103160000E0F1010010202030405060708090A0BDE
:103170000C0D0E0F101000000000000000000102F6
:10318000030406070809000000000102030404000C
:103190000008000000000000000200010000100014
:1031A000C03100080000002038000000280100089D
:1031B000F831000838000020100C0000440100081D
:1031C0009600960096009600960000000000000011
:1031D00001010101000000000000000000000000EB
:1031E00000000000000000000100000010000000CE
:0831F0000000000000127A004B
:04000005080000ED02
:00000001FF
