:020000040800F2
:100000003007002089010008B7140008B112000869
:10001000B5140008E7020008DF1600080000000021
:10002000000000000000000000000000BB140008F9
:10003000E902000800000000B9140008BD1400081F
:10004000A3010008A3010008A3010008A301000800
:10005000A3010008A3010008A3010008A3010008F0
:10006000A3010008A3010008A3010008A3010008E0
:10007000A3010008A3010008A3010008A3010008D0
:10008000A3010008A3010008A3010008A3010008C0
:10009000A30100080000000000000000A301000808
:1000A0000000000000000000000000000000000050
:1000B000A3010008A3010008A3010008A301000890
:1000C000A3010008A3010008A3010008A301000880
:1000D000A3010008A3010008A3010008A301000870
:1000E000A3010008A3010008A301000800F002F822
:1000F00000F03AF80AA090E8000C82448344AAF188
:100100000107DA4501D100F02FF8AFF2090EBAE885
:100110000F0013F0010F18BFFB1A43F0010318473B
:1001200098160000B8160000103A24BF78C878C1AD
:10013000FAD8520724BF30C830C144BF04680C60ED
:10014000704700000023002400250026103A28BF35
:1001500078C1FBD8520728BF30C148BF0B60704739
:100160001FB51FBD10B510BD00F058F81146FFF7C0
:10017000F7FF01F0C5FA00F076F803B4FFF7F2FFDD
:1001800003BC00F07DF8000009488047094800479B
:10019000FEE7FEE7FEE7FEE7FEE7FEE7FEE7FEE737
:1001A000FEE7FEE704480549054A064B7047000094
:1001B00039150008ED00000830010020300700204C
:1001C00030030020300300204FF0000200B513463A
:1001D00094469646203922BFA0E80C50A0E80C5067
:1001E000B1F12001BFF4F7AF090728BFA0E80C5018
:1001F00048BF0CC05DF804EB890028BF40F8042B11
:1002000008BF704748BF20F8022B11F0804F18BF7D
:1002100000F8012B7047704770477047754600F033
:100220002BF8AE4605006946534620F00700854688
:1002300018B020B5FFF7B6FFBDE820404FF000062C
:100240004FF000074FF000084FF0000B21F00701BE
:10025000AC46ACE8C009ACE8C009ACE8C009ACE801
:10026000C0098D46704710B50446AFF300802046A4
:10027000BDE81040FFF781BF00487047D000002064
:1002800001491820ABBEFEE72600020070470000BF
:1002900070B5044600688168C943C90717D18168F1
:1002A00021F00101816000F069FA05460AE000BF13
:1002B00000F064FA401B022804D920688068C0431B
:1002C000C00706D020688068C043C007F0D0002077
:1002D00070BDA06A40F01000A062E06A40F001002A
:1002E000E062012070BDFEE7704772B6FEE70000D5
:1002F00010B5322801D2322002E08C2800D98C209F
:100300000849096888630421064800F067FF4FF434
:100310007A7000F041F9BDE810400421014800F076
:100320009FBF000088000020F8B50024009490F8DA
:1003300024202546012A12D0012280F824204A6870
:100340001F23072A0DD20668776B521E02EB82022A
:1003500093409F430B6893401F43776319E002204B
:10036000F8BD06680D2A0AD2376BD21F02EB820253
:1003700093409F430B6893401F43376309E0F76A3C
:100380000D3A02EB820293409F430B6893401F4358
:10039000F7620A68072306680A2A0AD3F7680A3A46
:1003A00002EB420293409F438B6893401F43F760E8
:1003B00008E0376902EB420293409F438B68934009
:1003C0001F4337610A68102A01D0112A20D1124B2D
:1003D00002689A4217D193681B0219D4936843F4B8
:1003E000000393600968102912D10C490C4A09686E
:1003F000B1FBF2F101EB8101490000E0491E0091DF
:100400000029FBD104E0816A41F0200181620124CE
:1004100080F824502046F8BD002401400C00002044
:1004200040420F002DE9F0414FF0000704003D4627
:100430007ED0A06A002628B9E66284F824602046AF
:1004400000F07EF82046FFF723FFA16AC90600D41A
:1004500020B1A06A40F01000A06269E0A16A21F416
:10046000885141F00201A1626268E169237B0A437D
:1004700047EA43010A43A1684FF48077B94209D0A3
:10048000012907D05FF0000194F814C0BCF1010FFE
:1004900002D00AE03946F7E7F3B1A36A43F020033C
:1004A000A362E36A43F00103E3622368D3F804C064
:1004B0002CF4694C4CEA010CC3F804C021688B6829
:1004C000DFF870C003EA0C0313438B60A168B942E4
:1004D0000BD0012909D00CE0DFF85CC0A3690CEB5C
:1004E00043330B4343F40061DFE7218A0D05A5F593
:1004F00080152168CB6A23F470032B43CB622168FB
:1005000089680E4B1940914208D1E662A16A21F038
:10051000020141F00101A162BDE8F081A06A20F072
:10052000020040F01000A062E06A40F00100E062CA
:100530000120F1E7FDF7E1FF00E0FFFFFE0E1FFFE6
:1005400000B585B0002100910191029103910068EE
:100550000E49884218D10E48816941F400718161C9
:10056000816901F400710491816941F004018161A4
:100570008069694600F0040004901F200090032069
:100580000190044800F01AF805B000BD00240140B5
:10059000001002400008014070B5044600F0EEF87B
:1005A0000546601C02D004480078044400F0E6F8D8
:1005B000401BA042FAD370BD000000202DE9F84F87
:1005C000DFF89C910024A9F1040B23460F2709F1C1
:1005D000040AABF1040EBBE00125A5402A40AA4263
:1005E00076D1DFF880C14E68A6EB0C0866452BD0AB
:1005F0000DDC032E34D005DC36B3012E19D0022ECB
:100600002FD11BE0112E16D0122E2AD119E0B8F5E9
:10061000881F19D006DCB8F5803F15D0B8F5801FCB
:100620001FD111E0B8F5001F0ED0B8F5041F18D186
:100630000AE0CB6815E0CB681B1D12E0CB680833DD
:100640000FE0CB680C330CE08B682BB1012B4FF023
:10065000080303D0456104E0042302E0056100E0E3
:100660000023FF2A01D8064601E000F104064FEA04
:10067000840501D9A5F12005D6F8008007FA05FC0C
:1006800028EA0C0803FA05F548EA0508C6F80080D0
:100690004D68ED005BD5344DAE6946F00106AE61A4
:1006A000AD6924F0030605F0010500952F4D06EB1A
:1006B000050CDCF80850A607360F07FA06F825EAFD
:1006C0000805DFF8AC80404503D14FF0000810E08A
:1006D0003DE0DFF8A080404502D14FF0010808E07E
:1006E000DFF89480404502D14FF0020801E04FF05E
:1006F000030808FA06F848EA0508CCF808804D68AF
:10070000D9F80060ED024D4601D5164300E096434E
:100710002E604D68DAF80060AD02554601D51643EB
:1007200000E096432E604D68DBF80060AD035D4647
:1007300001D5164300E096432E604D68DEF8006058
:10074000ED03754601D5164300E096432E60641C08
:100750000A6832FA04F57FF43FAFBDE8F88F000075
:100760000804014000001110001002400000014088
:1007700000080140000C0140001001400148806861
:100780007047000000000020024881680278114490
:100790008160704700000020074810B5016841F0F3
:1007A00010010160032000F067F80F2000F006F848
:1007B00000F024F8002010BD0020024070B50D4D5F
:1007C00004464FF47A712878B1FBF0F00A490968C1
:1007D000B1FBF0F000F024FB48B9102C07D2002246
:1007E0002146501E00F028F800206C6070BD0120EA
:1007F00070BD0000000000200C0000200C4808B56F
:10080000816941F001018161816901F0010100917B
:10081000C16941F08051C161C06900F08050009011
:100820000448416821F0E06141F00071416008BD79
:100830000010024000000140F0B40E4B1B680C4653
:10084000C3F30223C3F10705042D00D90425191DA4
:10085000072901D2002300E0DB1E012606FA05F17C
:10086000491E214099409E40761E16403143F0BCFF
:1008700000F036BF0CED00E0064900F00702086802
:100880004FF6FF03184040EA0220034A1043086075
:10089000704700000CED00E00000FA052DE9F84378
:1008A00005460078354CC00754D0E0690026C000EA
:1008B00008D4E06940F08050E061E069012600F072
:1008C000805000902E480168C90512D40168804606
:1008D00041F480710160FFF751FF074605E000BF5A
:1008E000FFF74CFFC01B642823D8D8F80000C005D0
:1008F000F6D5206A10F4407021D0A98801F4407127
:1009000081421CD0206A1F49012220F440700A60F5
:1009100000220A602062C00711D0FFF72FFF0746B0
:1009200041F2883808E000BFFFF728FFC11B4145AE
:1009300002D90320BDE8F883206A8007F4D5206A35
:10094000696820F44070084320621EB1E06920F01D
:100950008050E0612878800705D56068A96820F498
:100960004040084360602878C00605D56068E968A3
:1009700020F48000084360600020DBE700100240A4
:1009800000700040400442422DE9F0470F46050048
:1009900061D0434E306800F00700B84209D2306899
:1009A00020F0070038433060306800F00700B8429C
:1009B00051D128683B4C810712D5400703D56068A8
:1009C00040F4E06060602878000703D5606840F478
:1009D000605060606068A96820F0F00008436060C3
:1009E0002878C00728D06868012810D0216802281C
:1009F00010D0890700292EDA616821F00301014334
:100A00006160FFF7BBFE804641F288390DE0216846
:100A10008903EFE78901EDE7FFF7B0FEA0EB0801DE
:100A2000494502D90320BDE8F0876068696800F095
:100A30000C00B0EB810FEFD1306800F00700B84236
:100A40000BD9306820F0070038433060306800F080
:100A50000700B84201D00120E5E72878400705D516
:100A60006068E96820F4E060084360602878000767
:100A700006D56068296920F4605040EAC1006060D2
:100A800000F018F86168084AC1F30311515CC840CE
:100A90000649086006480068FFF790FE0020C2E79C
:100AA0000020024000100240A61700080C000020A1
:100AB000040000200E4A51680E4801F00C03042B7C
:100AC00011D0082B0FD10C48C1F38343C903C05C7C
:100AD0000AD55168084AC1F34041921E515C054A4B
:100AE0005043B0FBF1F070470449484370470000A1
:100AF0000010024000127A009617000800093D001D
:100B00002DE9F84F040070D02078C04DC00749D0BF
:100B10006868C0F38100012807D06868C0F38100CD
:100B2000022809D16868C00306D52868800339D532
:100B300060680028E7D035E06068B0F5803F0BD0F2
:100B400010B1B0F5A02F11D0286820F480302860B3
:100B5000286820F4802002E0286840F48030286073
:100B6000606890B1FFF70AFE06460AE0286840F484
:100B700080202860F0E700BFFFF700FE801B64289C
:100B800073D828688003F7D50CE0FFF7F7FD064619
:100B900005E000BFFFF7F2FD801B6428F0D828684D
:100BA0008003F7D420789A4E80074FF001094FF068
:100BB000000839D5686810F00C0F07D06868C0F3DA
:100BC0008100022809D16868C00306D4286880071C
:100BD00014D52069012808D110E02069B0B1C6F809
:100BE0000090FFF7CBFD074605E00AE1FFF7C6FDE1
:100BF000C01B0228C4D828688007F7D52868616917
:100C000020F0F80040EAC10028600DE0C6F800803E
:100C1000FFF7B4FD074604E0FFF7B0FDC01B022854
:100C200023D828688007F7D4207800072CD5794886
:100C3000A169D9B1C0F80090FFF7A0FD074604E014
:100C4000FFF79CFDC01B02280FD8686A8007F7D504
:100C500071484FF4FA510068B0FBF1F0009000BF0A
:100C60000098411E0091FAD20EE080E0C0F80080AA
:100C7000FFF784FD074604E0FFF780FDC01B022854
:100C800075D8686A8007F7D42078400760D5E8698E
:100C90000027C00008D4E86940F08050E861E869A6
:100CA000012700F0805000905C480168C90513D40A
:100CB0000168834641F480710160FFF75FFD824661
:100CC00006E000BFFFF75AFDA0EB0A0064284ED8EB
:100CD000DBF80000C005F5D5E06801280AD008B1AE
:100CE000052813D0286A20F001002862286A20F025
:100CF000040002E0286A40F001002862E06841F246
:100D0000883B98B1FFF73AFD82460BE0286A40F035
:100D100004002862EEE700BFFFF730FDA0EB0A01F8
:100D200059455AD8286A8007F6D50CE0FFF726FD0A
:100D3000824605E0FFF722FDA0EB0A0159454CD899
:100D4000286A8007F6D41FB1E86920F08050E86176
:100D5000E06988B36968C1F38101022944D002289F
:100D6000C6F8608004D0FFF709FD044638E034E09F
:100D7000FFF704FD074604E0FFF700FDC01B022853
:100D80002BD828688001F7D4206AB0F5803F05D1C0
:100D90006868A16820F4003008436860D4E908015D
:100DA0000843696821F4741108436860C6F86090CC
:100DB000FFF7E4FC044606E025E000BFFFF7DEFC99
:100DC000001B022809D828688001F7D51BE000BF66
:100DD000FFF7D4FC001B022802D90320BDE8F88FDE
:100DE00028688001F4D40EE00128F7D06868226AF0
:100DF00000F48031914204D1616A00F4701088429D
:100E000001D00120EAE70020E8E7000000100240DE
:100E100000004242800442420C000020007000406A
:100E200010B5401EB0F1807F01D3012010BD4FF0FE
:100E3000E02460610F21601700F052FC0020A061E7
:100E400007202061002010BD70B590F83C20012AD9
:100E500023D0012480F83C40022280F83D20036822
:100E60005A689D6822F070060A6832435A60026828
:100E7000B2F1804F05D00A4B9A4202D0094B9A42F8
:100E800004D1496825F080031943916080F83D4002
:100E9000002180F83C10084670BD022070BD0000A3
:100EA000000400400008004010B5040003D094F88E
:100EB0003D0010B107E0012010BD002084F83C0087
:100EC000204600F01FF8022084F83D00211D206814
:100ED00000F034FB012084F8460084F83E0084F8DA
:100EE0003F0084F8400084F8410084F8420084F810
:100EF000430084F8440084F8450084F83D00002055
:100F000010BD000008B50C4A01680C48914207D199
:100F1000C16941F00201C161C06900F0020009E04D
:100F2000074A914207D1C16941F00401C161C0691A
:100F300000F00400009008BD0004004000100240D2
:100F40000008004070B5044690F83C0000250128D8
:100F500017D0012684F83C60022084F83D00206808
:100F6000826822F0770222F47F428260086850286B
:100F700038D00DDC20284FD005DC90B3102811D1DB
:100F80004AE0022070BD302846D040280AD13BE01C
:100F900060282FD070280DD0B0F5805F03D0B0F559
:100FA000005F12D0012584F83D60002084F83C00E9
:100FB000284670BDCB68D1E90121206800F0FDFA18
:100FC0002068816841F0770109E0CB68D1E901210F
:100FD000206800F0F2FA2068816841F48041816065
:100FE000E1E719E0CA684968206800F055FB502124
:100FF000206806E0CA684968206800F05EFB60214E
:10100000206800F0E4FACEE7CA684968206800F07A
:1010100043FB40212068F4E7226801461046F0E7D0
:1010200030B585B0002100910191029103911C4BD4
:1010300002681C49C02002241B4D9A421BD18A69B8
:1010400042F004028A618A6902F0040204928A6909
:1010500042F008028A618969CDE9000401F00801C3
:10106000CDE9034169461148FFF7A8FA0320CDE90D
:10107000000403940DE00E4B9A420ED18A6942F0AF
:1010800008028A618969CDE9000401F00801CDE90F
:10109000034169462846FFF791FA05B030BD0000CC
:1010A0000004004000100240000C01400008014014
:1010B0000008004070B5044690F83C0000260D463C
:1010C00001280FD0012084F83C006AB1042A1DD009
:1010D000082A2FD00C2A3FD00126002084F83C009B
:1010E000304670BD022070BD206800F078FA20689C
:1010F000816941F0080181612068816921F0040162
:101100008161206881692A69114311E0206800F03B
:101110007CFA2068816941F40061816120688169FD
:1011200021F480618161206881692A6941EA022194
:101130008161D2E7206800F080FA2068C16941F03F
:101140000801C1612068C16921F00401C161206802
:10115000C1692A69114311E0206800F085FA20680E
:10116000C16941F40061C1612068C16921F48061F5
:10117000C1612068C1692A6941EA0221C161ACE705
:1011800010B5040003D094F83D0010B107E0012031
:1011900010BD002084F83C00204600F01EF802201C
:1011A00084F83D00211D206800F0C8F9012084F872
:1011B000460084F83E0084F83F0084F8400084F83C
:1011C000410084F8420084F8430084F8440084F825
:1011D000450084F83D00002010BD704710B504465E
:1011E000022249B104290ED0082913D094F84100F5
:1011F000012816D0012010BD94F83E000128F9D135
:1012000084F83E200FE094F83F000128F2D184F8E2
:101210003F2008E094F840000128EBD184F84020FA
:1012200001E084F841200122206800F0B9F920682B
:10123000B0F1804F05D00849884202D00749884262
:1012400004D1816801F00701062903D0016841F04B
:1012500001010160002010BD0004004000080040B2
:1012600030B504460D460068002200F099F9206868
:10127000016A41F21112114207D1016A9210114222
:1012800003D1016821F00101016001203DB1042D6D
:1012900008D0082D09D084F84100002030BD84F822
:1012A0003E00FAE784F83F00F7E784F84000F4E7EF
:1012B000FEE700003EB5002410480094019402941B
:1012C0000D498460016004730475012505614FF4C4
:1012D00060214460C161FFF7A5F808B1FFF705F888
:1012E000CDE90045694605480294FFF71DF800283E
:1012F00001D0FEF7FAFF3EBD00240140100000209F
:101300000D4808B5816941F020018161816901F0D2
:1013100020010091816941F004018161816901F03E
:1013200004010091816941F008018161806900F048
:101330000800009008BD00000010024010B58EB0FB
:1013400000240794089409940A940B941C2168467D
:101350000C94FEF739FF2B482949016040F2CF2158
:10136000C0E9011440F2CF71C0E903148461FFF7B2
:101370009BFD08B1FEF7B9FF4FF48050079007A915
:101380002048FFF7DFFD08B1FEF7AFFF1D48FFF76C
:10139000F7FE08B1FEF7A9FF0B940BA919480C94AE
:1013A000FFF752FD08B1FEF7A0FF6020CDE9000471
:1013B00002940022694613480494FFF77BFE08B1AB
:1013C000FEF793FF042269460E48FFF773FE08B14B
:1013D000FEF78BFF082269460A48FFF76BFE08B14B
:1013E000FEF783FF0C2269460648FFF763FE08B14B
:1013F000FEF77BFF0348FFF713FE0EB010BD0000A1
:10140000000400404000002010B58EB00024079476
:10141000089409940A940B941C2168460C94FEF7D6
:10142000D3FE23482149016040F2CF21C0E90114D5
:1014300040F2CF71C0E903148461FFF735FD08B1B4
:10144000FEF753FF4FF48050079007A91848FFF7A5
:1014500079FD08B1FEF749FF1548FFF791FE08B185
:10146000FEF743FF0B940BA911480C94FFF7ECFC1B
:1014700008B1FEF73AFF6020CDE900040294002293
:1014800069460B480494FFF715FE08B1FEF72DFFDF
:10149000042269460648FFF70DFE08B1FEF725FF56
:1014A0000348FFF7BDFD0EB010BD0000000800406E
:1014B00088000020FEE7FEE770477047FFF764B939
:1014C00030B593B028216846FEF77EFE14210AA8A5
:1014D000FEF77AFE002501200F9510951195010465
:1014E00012958DE8230004904FF4E010CDE9081028
:1014F000022407946846FFF703FB08B172B6FEE7C3
:101500000AA90F2081E831004FF48060CDE90D0574
:1015100002210AA8FFF738FA08B172B6FEE74FF4C5
:10152000004011900F940FA8FFF7B8F9002801D0E0
:1015300072B6FEE713B030BD7047000070B50268A8
:101540004FF08046144B154CB04203D0984201D066
:10155000A04205D122F070054A682A43B04203D068
:10156000984201D0A04203D122F44073CA681A43C2
:101570004B6922F080021A4302608A68C2620968DD
:101580008162012141610169C90703D0016921F02C
:101590000101016170BD000000040040000800402E
:1015A00010B501F01F030121046A99408C430462C5
:1015B000016A9A401143016210BD10B5846842EA85
:1015C000032224F47F440A432243826010BD8268D0
:1015D00022F070020A4342F007018160704730B583
:1015E000036A026A22F0010202624468826922F000
:1015F00073050A682A4323F002058B6844602B4375
:10160000826149684163036230BD30B5046A026A91
:1016100022F010020262426883690D6823F4E643F7
:1016200043EA05238D6824F0200444EA051442604F
:10163000836149688163046230BD30B5046A026A1F
:1016400022F4807202624368C26924F4007422F0BA
:1016500073050A682A438D68436044EA0524C26121
:101660004968C163046230BD30B5046A026A22F47D
:10167000805202624268C3690D6823F4E64343EA7C
:1016800005238D6824F4005444EA05344260C361A4
:1016900049680164046230BD10B5036A046A24F02D
:1016A00001040462846924F0F00444EA021423F083
:1016B0000A020A438461026210BD10B5036A046A1B
:1016C00024F010040462846923F0A00324F470441D
:1016D00044EA023243EA01118261016210BDFEE771
:1016E0000907090E002804DB00F1E02080F800144F
:1016F000704700F00F0000F1E02080F8141D7047E3
:10170000FFF74AF8FFF7DCFEFFF7FAFDFFF7D2FD1F
:10171000FFF714FEFFF778FE1C4996200A68506315
:101720000A6890630A68D063096808641849096800
:10173000486300211548FFF751FD04211348FFF7C6
:101740004DFD08211148FFF749FD0C210F48FFF717
:1017500045FD00210E48FFF741FD4FF47A74204605
:10176000FEF71AFF8C20FEF7C3FD2046FEF714FF9C
:101770003220FEF7BDFD2046FEF70EFF8C20FEF75F
:10178000B7FD2046FEF708FFFEE7000040000020FE
:1017900088000020010202030405060708090A0B5D
:1017A0000C0D0E0F101000000000000000000102E0
:1017B0000304060708090000D817000800000020ED
:1017C0001000000028010008E817000810000020A1
:1017D0002007000044010008010000001000000084
:0817E0000000000000127A0075
:04000005080000ED02
:00000001FF
