:020000040800F2
:10000000480D0020A50100083F3200088F2B000892
:100010003D320008E50D0008913F00080000000097
:10002000000000000000000000000000E9380008A7
:100030001F0E00080000000031330008B13A00082C
:10004000BF010008BF010008BF010008BF01000890
:10005000BF010008BF010008BF010008BF01000880
:10006000BF010008BF010008BF010008E90D00083A
:10007000BF010008BF010008BF010008BF01000860
:10008000BF010008BF010008BF010008BF01000850
:10009000BF0100080000000000000000BF010008D0
:1000A0000000000000000000000000000000000050
:1000B000BF010008BF010008BF010008BF01000820
:1000C000BF010008BF010008BF010008BF01000810
:1000D000BF010008853F0008BF010008BF010008FC
:1000E000BF010008BF010008BF01000800F002F8CE
:1000F00000F048F80AA090E8000C82448344AAF17A
:100100000107DA4501D100F03DF8AFF2090EBAE877
:100110000F0013F0010F18BFFB1A43F0010318473B
:10012000A4430000C4430000103A24BF78C878C13B
:10013000FAD8520724BF30C830C144BF04680C60ED
:10014000704700000023002400250026103A28BF35
:1001500078C1FBD8520728BF30C148BF0B60704739
:10016000642900F07B80002070471FB500F07AFD05
:1001700004000020002104F04BF8401C60601FBD0B
:1001800010B510BD00F032FD1146FFF7EEFF03F091
:1001900017FF00F059FD03B4FFF7F2FF03BC00F0B6
:1001A00065FD00000948804709480047FEE7FEE773
:1001B000FEE7FEE7FEE7FEE7FEE7FEE7FEE7FEE717
:1001C00004480549054A064B704700002D3B0008CE
:1001D000ED00000848070020480D002048090020D5
:1001E000480900200FB41CB5074B06AA7B4469469A
:1001F0000090059800F0D9FA0020694600F0E8FA6E
:100200001CBC5DF814FB0000E105000070B504465D
:1002100085690068C10601D5302600E02026C007A8
:1002200007D070BDD4E9012130469047206A401CB8
:1002300020626D1EF6D570BD70B5044685690078E4
:10024000C00707D170BDD4E9012120209047206A62
:10025000401C20626D1EF6D570BD00002DE9F041F6
:100260000646002410687529314616A510D0AFF354
:100270000080002802DA404213A507E031688A07AF
:1002800001D512A502E0490704D511A5012401E01A
:10029000AFF3008000210A2206F1240709E0B0FB39
:1002A000F2FCB0FBF2F302FB1C003030785418462D
:1002B000491C0028F3D123462A463046BDE8F041C8
:1002C00000F015BA000000002D0000002B00000017
:1002D000200000002DE9F05F894604464FF0000A37
:1002E000DFF824B1FB44C0F820A02046E16888472D
:1002F00000287DD0252806D0D4E901219047206A26
:10030000401C2062F1E700255F462046E1688847EF
:100310002028064607DB312E05D2B81910F8200C2C
:1003200008B10543F1E7A80701D525F00405C4F895
:100330001CA00027C4F818A02A2E09D0304603F0CC
:1003400038FE38B304EB8708303EC8F8186019E06F
:1003500059F8041B204604EB87029161E168884745
:10036000012F064618D1E069002820DA25F0200583
:100370001DE0D8F8180000EB800006EB4000303894
:10038000C8F818002046E1688847064603F011FEC9
:100390000028EED1012F0AD02E2E08D12046E16888
:1003A00088477F1C0646022F45F02005C4DBA06964
:1003B000002803DA404245F00105A061E80701D0BA
:1003C00025F01005A6B1A6F14100192802D8203663
:1003D00045F400654A463146204625604D46FFF704
:1003E000BFFE60B1012807D0ED1D25F0070000E039
:1003F00007E000F1080978E705F1040975E73046E0
:100400007AE7206ABDE8F09FCA4100000FB400B54A
:100410008DB010A9099000910B904FF0FF300A9019
:1004200000200C90064878440690064878446A46B6
:1004300007900F9909A800F0E5F90DB05DF814FBDD
:10044000FB030000130400002DE9FF5F1D464FF081
:10045000FF3B91464FF000085F46D5E90146A96988
:1004600001987F1C8847296A824688470028F6D170
:10047000BAF1FF3F0CD0002E24F4C06419DD6006F1
:1004800014D5BAF12B0F09D0BAF12D0F0ED103E01C
:10049000584604B0BDE8F09F44F48064A96901980F
:1004A0007F1C8847761E8246002E02DDBAF1300F8F
:1004B00003D0B9F1000F26D032E0A969761E019869
:1004C0007F1C44F400748847002E824605DDBAF193
:1004D000780F06D0BAF1580F03D0B9F1000F10D041
:1004E0001EE0B9F1000F02D0B9F1100F18D1A969BF
:1004F000761E01987F1C24F40074884782461020E1
:1005000002E0082000E00A20814609E0A96908FB12
:100510000908761E01987F1C44F4007488478246BF
:10052000002E05DD4946504600F057F90028EDDA67
:10053000E96901988847A00502D46FF00100A8E797
:10054000E00725D1600613D5600502D5C8F100008B
:1005500000E0404629680A1D2A600968220501D585
:10056000087015E0220701D5088011E008600FE04F
:100570002868011D29600068210502D580F80080E7
:1005800006E0210702D5A0F8008001E0C0F8008055
:1005900038467EE740EA0103024630B59B0710D19A
:1005A0004FF0013400E008C208C91D1B9D4315EA45
:1005B000C41FF8D013F0FF0102F8011B0DD01B0A75
:1005C000F8E711F8013B002B02F8013B05D011F8C8
:1005D000013B002B02F8013BF3D130BD10B5431CA9
:1005E00002E010F8011B71B18107FAD14FF001321E
:1005F00002C88C1A8C4314EAC211F9D0C01A0A0638
:1006000003D0C01E10BDC01A10BD0A0401D0801E48
:1006100010BD0902FCD0401E10BD4FF0000200B515
:10062000134694469646203922BFA0E80C50A0E815
:100630000C50B1F12001BFF4F7AF090728BFA0E8C3
:100640000C5048BF0CC05DF804EB890028BF40F88F
:10065000042B08BF704748BF20F8022B11F0804FD1
:1006600018BF00F8012B70474FF0013C50F8042BE5
:1006700051F8043B9A4221D1A2EB0C03934313EAB5
:10068000CC1317D150F8042B51F8043B9A4215D1E2
:10069000A2EB0C03934313EACC130BD150F8042BB9
:1006A00051F8043B9A4209D1A2EB0C03934313EA9D
:1006B000CC13DBD04FF00000704700BFD01A01BA56
:1006C000B1FA81F101F0180122FA01F0CB40C1F139
:1006D0002001DBB2C0B2C01A2CFA01F3D11A914347
:1006E00011EAC311E6D170477047704770472DE992
:1006F000F0470D4699469246044600F124080168E9
:10070000880604D5E06921F01001216000E0012095
:10071000A84201DD471B00E00027A1697A1902EB1E
:100720000900081AA0612078C00602D42046FFF70D
:100730006DFD002608E0D4E901211AF80600904773
:10074000206A401C761C20624E45F4DB2078C006EF
:100750000AD52046FFF75AFD06E0D4E901213020F2
:100760009047206A401C2062381EA7F10107F4DC84
:1007700007E0D4E9012118F805009047206A401CE1
:100780002062281EA5F10105F3DC2046FFF754FD89
:100790002078000602D50220BDE8F0870120FBE7A3
:1007A00001694A1C02610878704700B58FB0CDE935
:1007B00001310021059105497944CDE90310114625
:1007C0006846FFF787FD0FB000BD0000E5FFFFFFA3
:1007D0000A6802F8010B0A6070473A2800D23038E4
:1007E00020F02002412A01D3A2F13700884201D330
:1007F0004FF0FF3070470000026811441378016029
:1008000018467047D16005497944516104497944DB
:10081000116200211161114600F02EB8EDFFFFFFBB
:1008200053000000426842B1016811F8013B23B156
:10083000521EC0E90012184670470121C160881E8F
:10084000704742685AB1C368016843B983688B42F4
:1008500005D0491E521CC0E90012002070474FF01D
:10086000FF30704710B5044600F0E6F90068005DFF
:1008700000F0010010BD00002DE9F34F4FF0000A19
:100880000C4656468DB001200C9001F10C000B90E7
:1008900062690B9801219047051E2DD0252D2CD083
:1008A000216A8847C0B162690B9801219047216A8B
:1008B00088470028F7D16269411E0B98904700E0F5
:1008C000761CA1690D988847216A88470028F7D1CE
:1008D000E1690D988847DBE7A1690D988847A84230
:1008E000074601D1761CD3E7E1690D9888477F1C44
:1008F00002D1BAF1000F6FD06CE162690B9800274A
:100900003D46394690472A2804D162690B98012157
:1009100090470125DFF8D08262690B98012190474A
:10092000A0F130010A290AD24745E5DC07EB87012F
:1009300000EB4107303FDFD445F01005ECE7E90656
:1009400001D46FF000476C280AD04C2814D06828D6
:1009500015D06A280DD074281CD07A281AD01DE032
:1009600062690B98012190476C2802D045F004057C
:1009700014E045F002050DE045F020050AE062694B
:100980000B9801219047682802D045F0080505E042
:1009900045F4006562690B9801219047C4E901574D
:1009A00065283DD019DC58287AD00CDC452837D092
:1009B00004DC252826D041289ED131E046282FD0BE
:1009C000472899D12CE05B2877D0612828D063286C
:1009D0007CD0642823D15AE0F7E06F2848D008DCA7
:1009E00066281DD067281BD0692821D06E2816D113
:1009F00027E0702845D0732868D0752847D078281C
:100A00000DD14DE0A1690D988847252805463FF492
:100A100069AFE1690D9888476D1C3FF46AAFD9E072
:100A20000D9923466A466FF00100AFF30080C6E0DF
:100A300045F0400023464FF000026060A80736D41E
:100A40003EE0E8077FF447AF2068011D21600068A1
:100A5000290501D506701BE7290701D5068017E790
:100A6000A90703D5F117C0E9006111E706600FE798
:100A700045F0400023464FF008026060A80716D4F6
:100A80001EE040F60E0125EA0100606016E045F028
:100A9000400023464FF00A026060A80707D40FE029
:100AA00045F040006060A80708D5234610220D9944
:100AB0006FF00100AFF3008081E007E010222346D1
:100AC0000D996FF00100FFF7BFFC78E04FF00009CF
:100AD00063284F46C8464B46CB4602D05B2807D01A
:100AE00039E02079C00601D40120A060012732E05E
:100AF0006269D4F80CB00B98012190475E2807D1A9
:100B00004FF0010949466269D4F80CB00B98904740
:100B1000216939B900210A4603AB43F82120491C59
:100B20000829FADBD8B3216949B308F101086269E1
:100B30000B98012190475D28F4D1B9F1000F09D03D
:100B4000002003A951F82020D24341F82020401C66
:100B50000828F7DB03AB2069002820794FEA4070B2
:100B60001ED05B462246CDF80080CDE901970D9955
:100B700000286FF0010020DAAFF300801FE0C117FA
:100B800003AA00EBD1614B1121F01F0102EB83029C
:100B9000411A13680120884003431360C7E719E036
:100BA0000D99224600286FF00100009702DAAFF39A
:100BB000008004E0AFF3008001E0AFF30080002884
:100BC0000ADA401C06D10C9820B14FF0FF300FB06C
:100BD000BDE8F08F5046FAE7E90701D10AF1010AB2
:100BE000064400200C9053E6CCCCCC0C754600F0AB
:100BF00035F8AE4605006946534620F007008546A5
:100C000018B020B5FFF7DCFABDE820404FF0000631
:100C10004FF000074FF000084FF0000B21F00701E4
:100C2000AC46ACE8C009ACE8C009ACE8C009ACE827
:100C3000C0098D467047000010B500F013F8001D84
:100C400010BD00BFCD35000010B50446AFF30080E5
:100C50002046BDE81040FFF79EBA000000487047EC
:100C6000E8060020004870470807002001491820C6
:100C7000ABBEFEE7260002007047000070B50446D8
:100C800000688168C943C90717D1816821F0010153
:100C9000816000F08DFD05460AE000BF00F088FD90
:100CA000401B022804D920688068C043C00706D0D2
:100CB00020688068C043C007F0D0002070BDA06AE3
:100CC00040F01000A062E06A40F00100E062012004
:100CD00070BD10B50146406A826A12F0500F05D00F
:100CE000006A026BBDE8104008461047816A41F473
:100CF0000071816201688968C1F3424107290CD102
:100D0000017B51B9816A21F480718162816AC904D1
:100D100003D4816A41F00101816200F08FF910BDB6
:100D200010B5406A816A41F040018162C16A41F0B8
:100D30000401C16200F084F910BD10B5406A00F0F2
:100D40007EF910BDF8B5002604460096006881685B
:100D5000C943C9072DD0816841F00101816016485F
:100D600016490068B0FBF1F000E0401E009000283A
:100D7000FBD100F01DFD054616E000BF00F018FD98
:100D8000401B022810D920688068C043C0070BD0E0
:100D9000A06A40F01000A062E06A40F00100E0624A
:100DA00084F824600120F8BD20688068C043C00733
:100DB000E4D10020F8BD00006C00002040420F008C
:100DC00030B440F6FF74B0F5805F00D32046551A6A
:100DD0004543B5FBF4F008440BB18B18181A30BC2E
:100DE00002F09EBAFEE70000014800F0D9BA000008
:100DF000F804002030B590F840500124AC40C56B99
:100E00006C60046863604368102B036803D09960CA
:100E10000068C26030BD9A600068C16030BD704734
:100E200072B6FEE7322000F003B88C20AFF30080EA
:100E300010B5322801D2322002E08C2800D98C2053
:100E40000849096888630421064801F0EBFB4FF468
:100E50007A7000F0B5FBBDE810400421014801F0B4
:100E600023BC0000D8050020F8B5002504460095F5
:100E700090F8240001280BD0012084F8240020469B
:100E8000FFF7FCFE2046FFF75DFF060002D050E0B2
:100E90000220F8BDA06A20F4885040F00200A06251
:100EA000022000F0ADFE25490968B1FBF0F04000DA
:100EB00000E0401E00900028FBD12068816841F0CE
:100EC0000801816000F074FC074608E000F070FC47
:100ED000C01B0A2803D920688068000715D4206841
:100EE00080680007F2D42068816841F004018160C5
:100EF00000F05EFC074612E000F05AFCC01B0A2816
:100F00000DD920688068400709D5A06A20F002004A
:100F100040F01000A06284F824500120F8BD206841
:100F200080684007E8D4A06A20F0020040F0010089
:100F3000A06284F824503046F8BD00006C00002008
:100F4000F8B50024009490F824202546012A12D0F8
:100F5000012280F824204A681F23072A0DD2066840
:100F6000776B521E02EB820293409F430B689340C3
:100F70001F43776319E00220F8BD06680D2A0AD2E4
:100F8000376BD21F02EB820293409F430B68934062
:100F90001F43376309E0F76A0D3A02EB8202934080
:100FA0009F430B6893401F43F7620A680723066854
:100FB0000A2A0AD3F7680A3A02EB420293409F4397
:100FC0008B6893401F43F76008E0376902EB4202E9
:100FD00093409F438B6893401F4337610A68102AF0
:100FE00001D0112A20D1124B02689A4217D193687E
:100FF0001B0219D4936843F4000393600968102915
:1010000012D10C490C4A0968B1FBF2F101EB8101E4
:10101000490000E0491E00910029FBD104E0816AEB
:1010200041F020018162012480F824502046F8BD5F
:10103000002401406C00002040420F0070477047C0
:10104000704700002DE9F0414FF0000704003D46D5
:101050007ED0A06A002628B9E66284F82460204683
:1010600000F07EF82046FFF709FEA16AC90600D409
:1010700020B1A06A40F01000A06269E0A16A21F4EA
:10108000885141F00201A1626268E169237B0A4351
:1010900047EA43010A43A1684FF48077B94209D077
:1010A000012907D05FF0000194F814C0BCF1010FD2
:1010B00002D00AE03946F7E7F3B1A36A43F0200310
:1010C000A362E36A43F00103E3622368D3F804C038
:1010D0002CF4694C4CEA010CC3F804C021688B68FD
:1010E000DFF870C003EA0C0313438B60A168B942B8
:1010F0000BD0012909D00CE0DFF85CC0A3690CEB30
:1011000043330B4343F40061DFE7218A0D05A5F566
:1011100080152168CB6A23F470032B43CB622168CE
:1011200089680E4B1940914208D1E662A16A21F00C
:10113000020141F00101A162BDE8F081A06A20F046
:10114000020040F01000A062E06A40F00100E0629E
:101150000120F1E7FDF7E1FF00E0FFFFFE0E1FFFBA
:1011600070B586B000250646009501950295039559
:1011700000681A4988422ED11949886940F40070E4
:101180008861886900F400700490886940F0040068
:1011900088618869694600F0040004901F2000906F
:1011A000032001900F4800F01DFA104C0E48C4E9CE
:1011B00000058020C4E90250400020618000606189
:1011C0002020C4E90605204600F094F908B1FFF795
:1011D00027FE3462666206B070BD00000024014044
:1011E000001002400008014008000240F8040020FE
:1011F0002DE9F041044690F8240016460F460128D8
:101200000ED0012084F824002046FFF79BFD050046
:101210004FF0000006D084F824002846BDE8F08195
:101220000220FBE7A16A40F60162914341F480711C
:10123000A162A16A21F48011A1622168496849056F
:1012400005D5A16A21F4005141F48051A162A16A3F
:10125000C90404D5E16A21F00601E16200E0E06220
:1012600084F82400216A13488862216A1248C862FF
:10127000216A1248086321686FF002000860206844
:10128000816841F480718160216833463A464C316F
:10129000206A00F05DF920688168C1F342410729A6
:1012A000816803D041F480118160B6E741F4A00168
:1012B000FAE70000D30C00083B0D0008210D0008E0
:1012C00010B590F821100022022905D00421816375
:1012D00080F82020012010BD01680B6823F00E0368
:1012E0000B6001680B6823F001030B6090F840303D
:1012F000C46B012101FA03F3636080F8211080F8C8
:101300002020104610BD000010B590F821100024D8
:10131000022903D00421816301243DE001680A68A9
:1013200022F00E020A6001680A6822F001020A60D7
:101330001A4A0168914201D1012121E0174A143271
:10134000914201D110211BE0144A2832914201D16F
:10135000891515E0114A3C32914201D189140FE000
:101360000E4A5032914202D14FF4803108E00B4ACC
:101370006432914202D14FF4801101E04FF080714C
:10138000064A083A5160012180F82110002180F8B6
:101390002010416B01B18847204610BD0800024073
:1013A0002DE9F05FC16B0C6801680B68D0F840C094
:1013B000042202FA0CF2494DDFF824A1494E4A4FAB
:1013C000DFF828B1DFF828E122422CD05A072AD5CD
:1013D0000A68920603D40A6822F004020A600168CF
:1013E000A94201D1042219E0514501D1402215E062
:1013F000B14202D14FF4806210E0B94202D14FF401
:1014000080420BE0594502D14FF4802206E071453D
:1014100002D14FF4800201E04FF080622F49083979
:101420004A60C16A3BE04FF0020808FA0CF818EA7B
:10143000040F4FF000094FF0010235D05FEA8378C6
:1014400032D50B689B0605D40B6823F00A030B60AA
:1014500080F821200168A94201D1022219E05145FA
:1014600001D1202215E0B14202D14FF4007210E008
:10147000B94202D14FF400520BE0594502D14FF46A
:10148000003206E0714502D14FF4001201E04FF046
:101490000072124908394A6080F82090816A002958
:1014A0001AD0BDE8F05F0847082505FA0CF525427B
:1014B00012D01B0710D50B6823F00E030B6090F8B9
:1014C0004010C36B02FA01F15960826380F8212059
:1014D00080F82090016BE2E7BDE8F09F0800024031
:1014E0001C0002403000024044000240580002400C
:1014F0006C00024030B528B308C8134914221944BF
:10150000B1FBF2F18900C163104981630221417787
:101510001A6843F6F0718A43D0E900142143D0E9F8
:1015200002452C43214304692143446921438469D2
:101530002143114319600021416301224277017761
:10154000084630BD012030BDF8FFFDBF000002405D
:1015500070B5044690F82000002501280CD0012029
:1015600084F8200094F821600020012E06D084F831
:1015700020000225284670BD022070BD022684F896
:101580002160A0632068066826F0010606602046F8
:10159000FFF730FCE06A00282068016802D041F0C3
:1015A0000E0106E021F0040101602068016841F0AD
:1015B0000A0101602068016841F001010160D9E77A
:1015C00070B5044600F0F4F80546601C02D00448EB
:1015D0000078044400F0ECF8401BA042FAD370BD40
:1015E000600000202DE9F84FDFF89C910024A9F15C
:1015F000040B23460F2709F1040AABF1040EBBE0EC
:101600000125A5402A40AA4276D1DFF880C14E6864
:10161000A6EB0C0866452BD00DDC032E34D005DC80
:1016200036B3012E19D0022E2FD11BE0112E16D069
:10163000122E2AD119E0B8F5881F19D006DCB8F5AA
:10164000803F15D0B8F5801F1FD111E0B8F5001FFD
:101650000ED0B8F5041F18D10AE0CB6815E0CB68AE
:101660001B1D12E0CB6808330FE0CB680C330CE095
:101670008B682BB1012B4FF0080303D0456104E0C8
:10168000042302E0056100E00023FF2A01D806469A
:1016900001E000F104064FEA840501D9A5F1200517
:1016A000D6F8008007FA05FC28EA0C0803FA05F5CD
:1016B00048EA0508C6F800804D68ED005BD5344D5A
:1016C000AE6946F00106AE61AD6924F0030605F08F
:1016D000010500952F4D06EB050CDCF80850A60718
:1016E000360F07FA06F825EA0805DFF8AC80404512
:1016F00003D14FF0000810E03DE0DFF8A080404546
:1017000002D14FF0010808E0DFF89480404502D193
:101710004FF0020801E04FF0030808FA06F848EA23
:101720000508CCF808804D68D9F80060ED024D46F8
:1017300001D5164300E096432E604D68DAF800604C
:10174000AD02554601D5164300E096432E604D6824
:10175000DBF80060AD035D4601D5164300E096431B
:101760002E604D68DEF80060ED03754601D5164326
:1017700000E096432E60641C0A6832FA04F57FF498
:101780003FAFBDE8F88F00000804014000001110D1
:10179000001002400000014000080140000C014020
:1017A000001001408068084000D001207047000010
:1017B00001488068704700006000002070B5040098
:1017C00025D094F83D00002520B984F83C502046EF
:1017D00000F04EF9242084F83D002068016821F0D3
:1017E000010101602068016841F400410160206846
:1017F000016821F40041016000F060FB4D4A61681E
:10180000914201D84C4900E04C49884201D2012064
:1018100070BD4B492368B0FBF1F15E6826F03F06CE
:101820000E435E606368934206D94FF49673594342
:101830004FF47A73B1FBF3F12368491C1E6A26F05A
:101840003F06314319626168914210D84900401E39
:10185000B0FBF1F2521CC2F30B02042A01D20420A5
:1018600022E0B0FBF1F0401CC0F30B001CE0A268CA
:10187000F2B301EBC10303EB0116431EB3FBF6F316
:101880005B1C43F480431B0549D092B301EBC102BA
:1018900002EB0111401EB0FBF1F0401CC0F30B0045
:1018A00040F4804040F400402168CA694CF6FF7360
:1018B0009A431043C861D4E90710014320680268C5
:1018C00022F0C00211430160D4E903010143206802
:1018D000826848F2FF339A4311438160D4E90501DD
:1018E00008432168CA6822F0FF021043C86001E083
:1018F0000EE016E02068016841F0010101602564F6
:10190000202084F83D00256384F83E50002070BDFF
:1019100001EB4106431EB3FBF6F35B1CB3E701206A
:10192000C2E701EB4101401EB0FBF1F0401CC0F3E7
:101930000B00B7E7A086010080841E0000093D006F
:1019400040420F002DE9F84F1F4690468A46044654
:10195000DDF82890FFF72CFF054694F83D0020287D
:101960007FD11923012240492046009501F0A2F9B8
:10197000002876D194F83C00012872D0012084F828
:101980003C0020680168C90703D1016841F00101EA
:1019900001602068016821F400610160212084F861
:1019A0003D00102084F83E0000262664C4F8248000
:1019B0006785608D20852D48E0622B464A4651465A
:1019C000204601F0FDF890B92068416980690090D7
:1019D00036E02A464946204601F012FA50B1206C02
:1019E000042804D12068016841F4007101600120DD
:1019F000BDE8F88F606A216800780861606A401C61
:101A00006062618D491E6185218D491E89B22185E3
:101A100022685369DB435B070BD451B10078106136
:101A2000606A401C6062608D401E6085208D401E93
:101A300020852A464946204601F010F90028CED1DB
:101A4000208D0028C5D154F83D0B016841F4007188
:101A50000160202004F81E09E67766770020C7E7BA
:101A6000FFE70220C4E70000020010000000FFFFB3
:101A700010B586B000210091019102910391006898
:101A8000104988421BD1104CA06940F00800A061A9
:101A9000A069694600F0080004904FF4406000908F
:101AA00012200190032003900848FFF79BFDE06996
:101AB00040F48000E061E06900F48000049006B02A
:101AC00010BD00000058004000100240000C014012
:101AD00002488168027811448160704760000020EC
:101AE000074810B5016841F010010160032000F0C3
:101AF00075F80F2000F006F800F024F8002010BD63
:101B00000020024070B50D4D04464FF47A712878DC
:101B1000B1FBF0F00A490968B1FBF0F000F0A4FB5A
:101B200048B9102C07D200222146501E00F036F88A
:101B300000206C6070BD012070BD000060000020BE
:101B40006C0000200C4808B5816941F001018161F9
:101B5000816901F001010091C16941F08051C161C9
:101B6000C06900F0805000900448416821F0E061B5
:101B700041F00071416008BD0010024000000140CA
:101B8000002809DB00F01F0201219140400980007C
:101B900000F1E020C0F8001170470000F0B40E4BD7
:101BA0001B680C46C3F30223C3F10705042D00D9BB
:101BB0000425191D072901D2002300E0DB1E0126A0
:101BC00006FA05F1491E214099409E40761E1640B6
:101BD0003143F0BC02F0DDB90CED00E0064900F045
:101BE000070208684FF6FF03184040EA0220034A44
:101BF00010430860704700000CED00E00000FA059B
:101C000010B501460020234C012922D0022939D0E9
:101C100010291DD161682268D20119D51E48C1F36F
:101C20008342C903805C0AD561681B4AC1F3404105
:101C3000921E515C194AB2FBF1F1484301E0184988
:101C400048436168490203D440000321B0FBF1F02E
:101C500010BD226AC2F30121012903D1920701D5E7
:101C6000C80310BD022905D1626A920702D549F660
:101C7000404010BD0329FCD121688903F9D54FF2FA
:101C8000244010BD00F02AF96168C1F38131491C7C
:101C90004900DBE7001002408A44000800127A0085
:101CA00000093D002DE9F84305460078354CC00792
:101CB00054D0E0690026C00008D4E06940F08050AC
:101CC000E061E069012600F0805000902E48016834
:101CD000C90512D40168804641F480710160FFF7A4
:101CE00067FD074605E000BFFFF762FDC01B6428E3
:101CF00023D8D8F80000C005F6D5206A10F440704B
:101D000021D0A98801F4407181421CD0206A1F496A
:101D1000012220F440700A6000220A602062C0079D
:101D200011D0FFF745FD074641F2883808E000BFB3
:101D3000FFF73EFDC11B414502D90320BDE8F883F2
:101D4000206A8007F4D5206A696820F4407008434F
:101D500020621EB1E06920F08050E06128788007A1
:101D600005D56068A96820F4404008436060287881
:101D7000C00605D56068E96820F48000084360600B
:101D80000020DBE7001002400070004040044242A7
:101D90002DE9F0470F46050061D0434E306800F052
:101DA0000700B84209D2306820F00700384330609D
:101DB000306800F00700B84251D128683B4C8107D9
:101DC00012D5400703D5606840F4E0606060287871
:101DD000000703D5606840F4605060606068A968DF
:101DE00020F0F000084360602878C00728D06868B9
:101DF000012810D02168022810D0890700292EDA86
:101E0000616821F0030101436160FFF7D1FC804666
:101E100041F288390DE021688903EFE78901EDE798
:101E2000FFF7C6FCA0EB0801494502D90320BDE835
:101E3000F0876068696800F00C00B0EB810FEFD1AB
:101E4000306800F00700B8420BD9306820F0070076
:101E500038433060306800F00700B84201D00120FC
:101E6000E5E72878400705D56068E96820F4E06078
:101E7000084360602878000706D56068296920F467
:101E8000605040EAC100606000F038F86168084ABC
:101E9000C1F30311515CC840064908600648006858
:101EA000FFF730FE0020C2E7002002400010024091
:101EB0009A4400086C000020640000200448054992
:101EC00000684968044AC1F30221515CC840704768
:101ED0006C00002000100240AA4400080448054994
:101EE00000684968044AC1F3C221515CC840704788
:101EF0006C00002000100240AA4400080E4A5168FD
:101F00000E4801F00C03042B11D0082B0FD10C4804
:101F1000C1F38343C903C05C0AD55168084AC1F3C1
:101F20004041921E515C054A5043B0FBF1F07047AE
:101F300004494843704700000010024000127A0034
:101F40007844000800093D002DE9F84F040070D0E6
:101F50002078C04DC00749D06868C0F381000128CF
:101F600007D06868C0F38100022809D16868C003FF
:101F700006D52868800339D560680028E7D035E0A9
:101F80006068B0F5803F0BD010B1B0F5A02F11D034
:101F9000286820F480302860286820F4802002E03F
:101FA000286840F480302860606890B1FFF700FC3A
:101FB00006460AE0286840F480202860F0E700BF69
:101FC000FFF7F6FB801B642873D828688003F7D5D9
:101FD0000CE0FFF7EDFB064605E000BFFFF7E8FB6E
:101FE000801B6428F0D828688003F7D420789A4EA4
:101FF00080074FF001094FF0000839D5686810F0EC
:102000000C0F07D06868C0F38100022809D1686806
:10201000C00306D42868800714D52069012808D198
:1020200010E02069B0B1C6F80090FFF7C1FB074689
:1020300005E00AE1FFF7BCFBC01B0228C4D82868F2
:102040008007F7D52868616920F0F80040EAC100F0
:1020500028600DE0C6F80080FFF7AAFB074604E001
:10206000FFF7A6FBC01B022823D828688007F7D4F7
:10207000207800072CD57948A169D9B1C0F8009023
:10208000FFF796FB074604E0FFF792FBC01B022810
:102090000FD8686A8007F7D571484FF4FA51006885
:1020A000B0FBF1F0009000BF0098411E0091FAD201
:1020B0000EE080E0C0F80080FFF77AFB074604E0FE
:1020C000FFF776FBC01B022875D8686A8007F7D433
:1020D0002078400760D5E8690027C00008D4E86987
:1020E00040F08050E861E869012700F080500090DE
:1020F0005C480168C90513D40168834641F48071C6
:102100000160FFF755FB824606E000BFFFF750FB7A
:10211000A0EB0A0064284ED8DBF80000C005F5D516
:10212000E06801280AD008B1052813D0286A20F0F9
:1021300001002862286A20F0040002E0286A40F0CA
:1021400001002862E06841F2883B98B1FFF730FB5C
:1021500082460BE0286A40F004002862EEE700BFE8
:10216000FFF726FBA0EB0A0159455AD8286A8007D9
:10217000F6D50CE0FFF71CFB824605E0FFF718FBE5
:10218000A0EB0A0159454CD8286A8007F6D41FB144
:10219000E86920F08050E861E06988B36968C1F3BC
:1021A0008101022944D00228C6F8608004D0FFF7DC
:1021B000FFFA044638E034E0FFF7FAFA074604E095
:1021C000FFF7F6FAC01B02282BD828688001F7D445
:1021D000206AB0F5803F05D16868A16820F400301E
:1021E00008436860D4E908010843696821F4741160
:1021F00008436860C6F86090FFF7DAFA044606E024
:1022000025E000BFFFF7D4FA001B022809D8286890
:102210008001F7D51BE000BFFFF7CAFA001B0228B8
:1022200002D90320BDE8F88F28688001F4D40EE0BD
:102230000128F7D06868226A00F48031914204D105
:10224000616A00F47010884201D00120EAE70020A2
:10225000E8E70000001002400000424280044242D1
:102260006C0000200070004010B5401EB0F1807F6F
:1022700001D3012010BD4FF0E02460610F216017F1
:1022800001F087FE0020A06107202061002010BD22
:1022900070B590F83C20012A23D0012480F83C40FE
:1022A000022280F83D2003685A689D6822F070067B
:1022B0000A6832435A600268B2F1804F05D00A4B77
:1022C0009A4202D0094B9A4204D1496825F0800312
:1022D0001943916080F83D40002180F83C10084689
:1022E00070BD022070BD00000004004000080040E6
:1022F00010B5040003D094F83D0010B107E00120B0
:1023000010BD002084F83C00204600F01FF8022099
:1023100084F83D00211D206801F00AFC012084F8AA
:10232000460084F83E0084F83F0084F8400084F8BA
:10233000410084F8420084F8430084F8440084F8A3
:10234000450084F83D00002010BD000008B50C4A8F
:1023500001680C48914207D1C16941F00201C16195
:10236000C06900F0020009E0074A914207D1C16943
:1023700041F00401C161C06900F00400009008BD93
:1023800000040040001002400008004070B5044600
:1023900090F83C000025012817D0012684F83C6005
:1023A000022084F83D002068826822F0770222F43F
:1023B0007F4282600868502838D00DDC20284FD03A
:1023C00005DC90B3102811D14AE0022070BD3028FE
:1023D00046D040280AD13BE060282FD070280DD08D
:1023E000B0F5805F03D0B0F5005F12D0012584F80E
:1023F0003D60002084F83C00284670BDCB68D1E9E0
:102400000121206801F0D3FB2068816841F0770149
:1024100009E0CB68D1E90121206801F0C8FB206800
:10242000816841F480418160E1E719E0CA68496848
:10243000206801F02BFC5021206806E0CA6849683A
:10244000206801F034FC6021206801F0BAFBCEE77F
:10245000CA684968206801F019FC40212068F4E747
:10246000226801461046F0E730B585B000210091A2
:102470000191029103911C4B02681C49C020022467
:102480001B4D9A421BD18A6942F004028A618A6913
:1024900002F0040204928A6942F008028A618969A2
:1024A000CDE9000401F00801CDE903416946114876
:1024B000FFF798F80320CDE9000403940DE00E4BDC
:1024C0009A420ED18A6942F008028A618969CDE98F
:1024D000000401F00801CDE9034169462846FFF7F1
:1024E00081F805B030BD000000040040001002403B
:1024F000000C0140000801400008004070B504468F
:1025000090F83C0000260D4601280FD0012084F8E9
:102510003C006AB1042A1DD0082A2FD00C2A3FD0D3
:102520000126002084F83C00304670BD022070BDBA
:10253000206801F04EFB2068816941F0080181614B
:102540002068816921F004018161206881692A691C
:10255000114311E0206801F052FB2068816941F4C9
:10256000006181612068816921F480618161206856
:1025700081692A6941EA02218161D2E7206801F07C
:1025800056FB2068C16941F00801C1612068C1693A
:1025900021F00401C1612068C1692A69114311E079
:1025A000206801F05BFB2068C16941F40061C161F2
:1025B0002068C16921F48061C1612068C1692A690C
:1025C00041EA0221C161ACE710B5040003D094F8E0
:1025D0003D0010B107E0012010BD002084F83C0050
:1025E000204600F01EF8022084F83D00211D2068DE
:1025F00001F09EFA012084F8460084F83E0084F839
:102600003F0084F8400084F8410084F8420084F8D8
:10261000430084F8440084F8450084F83D0000201D
:1026200010BD704710B50446022249B104290ED0EE
:10263000082913D094F84100012816D0012010BDBC
:1026400094F83E000128F9D184F83E200FE094F878
:102650003F000128F2D184F83F2008E094F84000C0
:102660000128EBD184F8402001E084F841200122C8
:10267000206801F08FFA2068B0F1804F05D008493A
:10268000884202D00749884204D1816801F00701DD
:10269000062903D0016841F001010160002010BD4E
:1026A000000400400008004030B504460D460068B4
:1026B000002201F06FFA2068016A41F21112114202
:1026C00007D1016A9210114203D1016821F0010182
:1026D000016001203DB1042D08D0082D09D084F8F7
:1026E0004100002030BD84F83E00FAE784F83F0046
:1026F000F7E784F84000F4E770477047F8B50168E1
:1027000004460868CA684B6910F00F0F4FF00005C7
:1027100059D003F0010602F49077374365D0C10722
:1027200005D0D10503D5616C41F001016164410719
:1027300005D5D90703D0616C41F0020161648107BE
:1027400005D5D90703D0616C41F00401616401072C
:1027500007D502F02001314303D0616C41F008013C
:102760006164616C00293AD0800604D5900602D5D8
:10277000204601F0E7FA20684069616CC0F38010E0
:10278000090700D460B3204601F0ABFA2068406925
:10279000400621D52068143050E8001F21F0400188
:1027A00040E80012002AF5D1E06BA8B16D49416301
:1027B000E06BFEF7A9FD002811D0E06B416B01B082
:1027C000BDE8F040084783060FD593060DD5204697
:1027D000BDE8F84001F0B6BA2046FFF78EFFF8BD1D
:1027E0002046FFF78AFF6564F8BD266B2023012E83
:1027F0007CD1C6067AD5D60678D508684868009098
:1028000048694FF00206400640D5E16B0868406811
:102810000004000CE8D0A28D8242E5D9E0858869E9
:1028200020282DD020680C3050E8001F21F4807142
:1028300040E80012002AF5D12068143050E8001F4B
:1028400021F0010140E80012002AF5D1206814307F
:1028500050E8001F21F0400140E80012002AF5D1A5
:1028600084F84230256320680C3050E8001F21F0C6
:10287000100140E80012002AF5D1E06BFEF720FDC0
:102880006663A08DE18D401A81B22AE0A08DE18DB2
:10289000401A81B2E08D0028A6D00029A4D0226879
:1028A0000C3252E8000F20F4907042E80007002F2D
:1028B000F5D12068143050E8002F22F0010240E8E2
:1028C0000027002FF5D184F84230256320680C30B2
:1028D00050E8002F22F0100240E80023002BF5D131
:1028E00066632046FFF708FFF8BDFFE705062BD516
:1028F000150629D594F841002128F5D1A068B0F536
:10290000805F01D12069B0B1206A411C2162216839
:1029100000784860E08C401E0004000CE084E3D1A5
:102920002068C16821F08001C1602068C16841F061
:102930004001C160D8E7206A0088C0F30800486001
:10294000206A801C2062E5E74006CDD55006CBD535
:10295000CA68204622F04002CA6084F8413000F084
:1029600015F9C1E7D33C000870B5040004D094F811
:102970004100002510B106E0012070BD84F84050F0
:10298000204600F023F8242084F841002068C16824
:1029900021F40051C160204601F044FA2068016929
:1029A00021F4904101612068416921F02A014161CF
:1029B0002068C16841F40051C1606564202084F83A
:1029C000410084F842006563002070BD30B585B0D9
:1029D00000240094019402940394006818498842EA
:1029E0002CD11848816941F480418161816901F4E9
:1029F00080410491816941F0040181618069124D37
:102A000000F0040004904FF4007000900220019048
:102A10000320039069462846FEF7E4FD2815CDE91A
:102A20000004694628460294FEF7DCFD00221146A8
:102A30002520FFF7B3F82520FFF7A2F805B030BD39
:102A400000380140001002400008014090F8423078
:102A5000202B01D00220704721B11AB1002303635B
:102A600001F03CBA0120704730B400681B4988422D
:102A700032D11B48C17841BB427800231949232A2F
:102A80000CD084780CB38478212A09D03E2C1BD238
:102A9000837819445B1C83700A7016E08370F7E733
:102AA0000D19641C84702A7082780E4C8B5400229D
:102AB000403403E08D5CA554521CD2B285786D1C65
:102AC000AA42F7D30121C17083700549012230BCAD
:102AD000491C0548FFF7BABF30BC704700380140B9
:102AE0004C00002068060020200600202DE9F84355
:102AF000044690F84100984616460D46202802D01C
:102B00000220BDE8F88385B17EB1002060642120F9
:102B100084F84100FEF74CFEA6848146E684A06856
:102B20002027B0F5805F02D003E00120E9E72069AB
:102B300010B12E4600250EE000260CE08021204634
:102B400001F0E7F9A8B9C6B116F8010B2168486091
:102B5000E08C401EE084E08C4B464FF00002CDF844
:102B600000800028EAD14FF04001204601F0D1F961
:102B700040B184F841700320C3E735F8020BC0F37D
:102B80000800E3E784F841700020BAE77047FEE7E9
:102B900001684A69D24352050FD46FF480624A61DA
:102BA000002140F8301F202242738173026942F0F5
:102BB0000402026101730120704700207047000089
:102BC000F8B50446C06A1E460D461746082807D0C9
:102BD000012805D010F5803F02D0206B122804D1C7
:102BE0002068016841F480710160134600224FF0B3
:102BF00001112046009600F05DF840B120680068A1
:102C0000C00502D54FF4007020640320F8BD206990
:102C1000B0F5804F0ED00620216800EAD51040F0B4
:102C2000F000086133463A460B49204600F08AF826
:102C300078B902E005F0FE0000E0E8B22168086122
:102C4000054933463A46891F204600F07BF80028A4
:102C5000DCD00120F8BD00000800010070B5164668
:102C60000D4604461EE02046FFF792FF08B1012002
:102C700070BD681C16D0FEF79BFD801BA84200D8D3
:102C800085B920684069C04340070BD5002044F84F
:102C9000300F20216173A073216941F0200121616F
:102CA0002073E4E720684069C0434007DBD400207C
:102CB00070BD00002DE9F047984617460D460446C2
:102CC000C1F30746DDF820902AE000BFB8F1FF3FCE
:102CD00026D0FEF76DFDA0EB0901414502D8B8F101
:102CE000000F1DD12068012E16D0806925EA000052
:102CF0000004000C12D00020B84211D1002044F88A
:102D0000300F20216173A073216941F020012161FE
:102D100020730120BDE8F0874069E7E70120EBE779
:102D20002068012E0AD0806925EA00000004000C0A
:102D300006D00020B842C9D00020EBE74069F3E795
:102D40000120F7E72DE9F047984616460D46044660
:102D50004FF000094FF0200AC1F3074723E0206835
:102D60004069C043400515D42068016841F40071F2
:102D7000016021686FF480604861C4F8309084F885
:102D80003DA084F83E90216C41F00401216484F858
:102D90003C9021E0701C06D0FEF70AFDA0EB080075
:102DA000B04203D816B1012F1FD021E02068012FB7
:102DB00015D0806925EA00000004000C18D000BF7F
:102DC00044F8309F84F80DA084F80E90216941F0FA
:102DD0002001216184F80C900120BDE8F087406952
:102DE00025EA00000004000CEAD12068406901E0F7
:102DF0002068806925EA00000004000CAFD1ECE7F0
:102E000070B516460D4604461EE02046FFF7C0FE8C
:102E100008B1012070BD681C16D0FEF7C9FC801BEC
:102E2000A84200D885B920684069C04300060BD588
:102E3000002044F8300F20216173A073216941F014
:102E4000200121612073E4E720684069C043000647
:102E5000DBD4002070BD00002DE9F041314C4FF46F
:102E60008056002531462046FEF79CFC70B91420A0
:102E7000FEF7A6FB31462046FEF794FC30B901254B
:102E800031462046FEF78EFC0028F9D04FF400565C
:102E900031462046FEF786FC90B91420FEF790FBE1
:102EA00031462046FEF77EFC50B9022531462046C9
:102EB000FEF778FC0028F9D04FF49670FEF780FBFF
:102EC0004FF4804631462046FEF76CFC70B9142062
:102ED000FEF776FB31462046FEF764FC30B9032549
:102EE00031462046FEF75EFC0028F9D04FF400473B
:102EF000394626462046FEF755FC78B91420FEF7E1
:102F00005FFB3C4639463046FEF74CFC30B90425A1
:102F100021463046FEF746FC0028F9D02846BDE899
:102F2000F0810000000C0140FEB50024244800940C
:102F3000019422490294016089158160012505737D
:102F40000475052606614FF460214460C161FEF7F7
:102F500079F808B1FDF764FF8DE8700069461848FC
:102F6000FDF7EEFF08B1FDF75BFF0224CDE9005449
:102F700069461348FDF7E4FF08B1FDF751FF0094DF
:102F8000032469460E480194FDF7DAFF08B1FDF706
:102F900047FF00940424694609480194FDF7D0FFD7
:102FA00008B1FDF73DFFCDE9004669460448FDF74D
:102FB000C7FF002801D0FDF733FFFEBD002401400C
:102FC000C8040020094808B5416941F00101416188
:102FD0004069002200F00100009011460B20FEF72E
:102FE000DDFDBDE808400B20FEF7CABD0010024021
:102FF00000B585B00020019003901248816941F02E
:1030000020018161816901F020010491816941F011
:1030100004018161816901F004010491816941F039
:10302000080181618069694600F0080004904FF44E
:1030300070400090012002900348FEF7D3FA05B0DB
:1030400000BD000000100240000C01400D4810B50A
:103050000B4901600C49416000214FF480428160BE
:10306000C0E9031241618161C1610162FEF7A6FB03
:10307000002803D0BDE81040FDF7D2BE10BD00000F
:10308000005800403C050020A086010010B58EB01D
:1030900000240794089409940A940B941C21684610
:1030A0000C94FDF7BAFA2B482949016040F2CF2170
:1030B000C0E9011440F2CF71C0E903148461FFF745
:1030C00017F908B1FDF7ACFE4FF48050079007A93F
:1030D0002048FFF75BF908B1FDF7A2FE1D48FFF796
:1030E00073FA08B1FDF79CFE0B940BA919480C94D8
:1030F000FFF7CEF808B1FDF793FE6020CDE900049C
:1031000002940022694613480494FFF7F7F908B1C6
:10311000FDF786FE042269460E48FFF7EFF908B175
:10312000FDF77EFE082269460A48FFF7E7F908B175
:10313000FDF776FE0C2269460648FFF7DFF908B175
:10314000FDF76EFE0348FFF78FF90EB010BD0000CB
:10315000000400409005002010B58EB000240794B4
:10316000089409940A940B941C2168460C94FDF76A
:1031700054FA23482149016040F2CF21C0E90114EB
:1031800040F2CF71C0E903148461FFF7B1F808B1D0
:10319000FDF746FE4FF48050079007A91848FFF747
:1031A000F5F808B1FDF73CFE1548FFF70DFA08B138
:1031B000FDF736FE0B940BA911480C94FFF768F845
:1031C00008B1FDF72DFE6020CDE900040294002235
:1031D00069460B480494FFF791F908B1FDF720FE0A
:1031E000042269460648FFF789F908B1FDF718FE81
:1031F0000348FFF739F90EB010BD00000008004089
:10320000D80500200C4810B50A4901604FF4E1319F
:103210004160002181600C22C160C0E9041281611B
:10322000C161FFF7A1FB002803D0BDE81040FDF706
:10323000F7BD10BD0038014020060020FEE7FEE784
:1032400010B50446B031C8B200F058F8102040EA7A
:10325000141000F053F804F00F00BDE8104000F027
:103260004DB80000F0B50A460146A7B00020202363
:1032700021AC2354401CC0B21528FAD300208DF88D
:10328000990002E02354401CC0B2135C0BB1152816
:10329000F8D34020174F8DF80400002301AEE05C06
:1032A00020385F2801D3002000E0C0B200EB4000CE
:1032B000002207EB400503EB430C00BF02EB4C0080
:1032C00015F802E03044521CD2B280F801E0062A20
:1032D000F4D35B1CDBB2152BE1D30020FFF7B0FF6A
:1032E000642000907F2301AA78210348FEF72AFB7F
:1032F00027B0F0BD3C4200083C0500201CB5002171
:103300008DF804108DF8050064200090022301AAB6
:1033100078210248FEF716FB1CBD00003C0500208A
:10332000884200DA0846904200DD104680B27047BD
:10333000704700002DE9F84F2D480188022951D32C
:103340000026834649E0DFF8ACA0002506EB86099D
:1033500064270AEB49043AF819006289E389111AD3
:10336000694391FBF7F10844A2896188B4F810C061
:10337000521A6A4392FBF7F21144A288B4F8128001
:103380009B1A6B4393FBF7F31A44E38892B2ACEBBE
:10339000030C0CFB05FC9CFBF7FC9C44238989B2C5
:1033A000A8EB030808FB05F898FBF7F843449BB229
:1033B00000931FFA8CF380B200F0DEFA0F20FEF7C4
:1033C000FFF86D1CADB2642DC5D90B483044407870
:1033D00050B1FDF727FD761CB6B2BBF80000401EC9
:1033E0008642B0DBBDE8F88FFDF71FFDF3E7000074
:1033F0001400002070000020580400200149002023
:10340000088070471400002030B5174A1388642BD9
:1034100028D20488138803EB8305144B23F8154046
:103420004488158805EB850503EB45056C80848889
:10343000158805EB850503EB4505AC80C488158828
:1034400005EB850503EB4505EC800089148804EB4A
:10345000840403EB4403188105481388C154108881
:10346000401C108030BD00001400002070000020BF
:10347000580400202DE9FC416420FEF7A1F8AE209D
:10348000FFF73CFF2020FFF739FF1020FFF736FF42
:10349000B020FFF733FFC820FFF730FF0020FFF711
:1034A0002DFF1020FFF72AFF4020FFF727FF812084
:1034B000FFF724FF7F20FFF721FFA120FFF71EFF6A
:1034C000A620FFF71BFFA820FFF718FF3F20FFF7FC
:1034D00015FFA420FFF712FFD320FFF70FFF0020F6
:1034E000FFF70CFFD520FFF709FF8020FFF706FF4D
:1034F000D920FFF703FFF120FFF700FFDA20FFF7E5
:10350000FDFE1220FFF7FAFEDB20FFF7F7FE40205A
:10351000FFF7F4FE8D20FFF7F1FE1420FFF7EEFE1B
:10352000AF20FFF7EBFE0024642640272146002051
:10353000FFF786FE002500208DF804708DF8050049
:10354000022301AA782107480096FEF7FBF96D1CBB
:10355000EDB2802DEFD3641CE4B2082CE6D3BDE8B5
:10356000FC8100003C05002070B58AB004460E982E
:103570001E460D460AB115A102E0012822D017A16E
:103580000020FFF76FFE324618A103A8FCF72AFEC1
:1035900003A90220FFF766FEB5B118A10420FFF7CA
:1035A00061FEA0882289E1888DE80700638822886F
:1035B00015A103A8FCF716FE03A90620FFF752FE8B
:1035C0000AB070BD17A1DBE719A1E7E74D6F64658D
:1035D0003A20506C61796261636B00004D6F6465E5
:1035E0003A204D616E75616C00000000506F696E8D
:1035F00074733A202530336400000000477269700C
:103600003A20436C6F7365005B253033642C2530A2
:1036100033642C253033642C253033642C2530332F
:10362000645D00004D6F64653A2050430000000067
:10363000477269703A204F70656E000010B5012224
:1036400004490548FFF702FABDE8104003A000F066
:10365000DBBB00004D00002020060020526F626F8F
:103660007420554152542052656164790D0A00005E
:103670002DE9F0430E4689B081464BA1FCF7F4FFDB
:1036800001254C4C002836D04BA14846FCF7ECFFF6
:103690000027002832D007AA06A905A88DE8070050
:1036A00004AB03AA48A14846FCF7B0FE04F10808A1
:1036B00005282AD008AA49A14846FCF7A7FE0128F8
:1036C00046D048A14846FCF7CFFF002850D047A17C
:1036D0004846FCF7C9FF00285DD046A14846FCF7E4
:1036E000C3FF00285AD045A14846FCF7BDFF00287B
:1036F00057D044A004E0257047A001E027704AA0FD
:1037000000F082FB09B0BDE8F0832078012801D0E9
:103710004AA0F5E7039800F00BFBA8F80000444628
:10372000049800F005FB6080059800F001FBA08084
:10373000069800F0FDFAE080079800F0F9FA208181
:103740000090E388A2886188208800F015F9D9E705
:10375000089818B1012806D03DA0D1E73770FDF7D1
:1037600064FB40A0CCE73570FDF75CFB41A0C7E7E8
:103770009620A8F80000A8F80200A8F80400A8F80D
:103780000600A8F80800034602460146009000F033
:10379000F3F83CA0B4E725713DA0B1E765713FA007
:1037A000AEE7A57140A0ABE7234D4F44452C5043F5
:1037B000210000004C000020234D4F44452C4D417A
:1037C0004E55414C21000000234A2C25642C2564D1
:1037D0002C25642C25642C256421000023472C25EE
:1037E00064210000234D4944210000002352454339
:1037F0002100000023504C415921000023434C522A
:10380000210000004552523A554E4B4E4F574E2024
:10381000434D440D0A0000004F4B3A4D4F444520A4
:1038200050430D0A000000004F4B3A4D4F444520D5
:103830004D414E55414C0D0A000000004552523A90
:103840004E4F54205043204D4F44450D0A00000078
:103850004552523A475249502056414C55450D0A5F
:10386000000000004F4B3A47524950204F50454E00
:103870000D0A00004F4B3A4752495020434C4F53DA
:10388000450D0A004F4B3A4D49440D0A0000000017
:103890004F4B3A5245430D0A000000004F4B3A503F
:1038A0004C41590D0A0000004F4B3A434C520D0A4F
:1038B0000000000030B50A4D044691B0E8780028B9
:1038C0000BD072B607496846FCF764FE0020E8702A
:1038D00062B621466846FFF7CBFE11B030BD00004E
:1038E0004C000020A80600207047000006499620E2
:1038F0000A6850630A6890630A68D06309680864BC
:10390000024909684863704790050020D8050020E7
:10391000884201D9421A00E00A1A022A00DA08464F
:103920007047000005490A8802804A8842808A88D8
:103930008280CA88C2800989018170470A000020FC
:1039400010B500210A48FEF76DFE04210848FEF775
:1039500069FE08210648FEF765FE0C210448FEF7C3
:1039600061FEBDE8104000210248FEF75BBE00008A
:1039700090050020D8050020F0B514460D46E12240
:103980004B21059FFFF7CCFC0646E1224B21284640
:10399000FFF7C6FC0546E1224B212046FFF7C0FC9D
:1039A0000446E1224B211846FFF7BAFC0346E12208
:1039B0004B213846FFF7B4FC0949024608684663C4
:1039C000086885630868C46308680364054800687C
:1039D000426305490E804D808C80CB800A81F0BD0A
:1039E00090050020D80500200A0000202DE9F047AE
:1039F000044600880123E1224B21FDF7E1F9054649
:103A000060880123E1224B21FDF7DAF90646A08800
:103A10000123E1224B21FDF7D3F98246E0880123FF
:103A2000E1224B21FDF7CCF9074620890123E12251
:103A30004B21FDF7C5F91B4C814628462188FFF72D
:103A400067FF054661883046FFF762FF8046A18820
:103A50005046FFF75DFF0646E1883846FFF758FFFE
:103A6000074621894846FFF753FF0F490A68556307
:103A70000B68C3F838800A68D66309680F640B497D
:103A8000096848632580A4F80280A680E78004F1D5
:103A90000A0120810D80A1F802808E80CF800881EC
:103AA000BDE8F0870000002090050020D805002028
:103AB000FEF70EB830B593B028216846FCF7ADFD8F
:103AC00014210AA8FCF7A9FD002501200F951095E7
:103AD0001195010412958DE8230004904FF4E01035
:103AE000CDE90810022407946846FEF72DFA08B1C4
:103AF00072B6FEE70AA90F2081E831004FF480601A
:103B0000CDE90D0502210AA8FEF742F908B172B607
:103B1000FEE74FF4004011900F940FA8FEF7C2F893
:103B2000002801D072B6FEE713B030BD7047000028
:103B300070B502684FF08046144B154CB04203D06C
:103B4000984201D0A04205D122F070054A682A436C
:103B5000B04203D0984201D0A04203D122F4407376
:103B6000CA681A434B6922F080021A4302608A68CD
:103B7000C26209688162012141610169C90703D0FC
:103B8000016921F00101016170BD000000040040E5
:103B90000008004010B501F01F030121046A99409C
:103BA0008C430462016A9A401143016210BD10B552
:103BB000846842EA032224F47F440A432243826059
:103BC00010BD826822F070020A4342F00701816052
:103BD000704730B5036A026A22F00102026244684B
:103BE000826922F073050A682A4323F002058B6874
:103BF00044602B43826149684163036230BD30B544
:103C0000046A026A22F010020262426883690D6847
:103C100023F4E64343EA05238D6824F0200444EAB4
:103C200005144260836149688163046230BD30B528
:103C3000046A026A22F4807202624368C26924F450
:103C4000007422F073050A682A438D68436044EAD1
:103C50000524C2614968C163046230BD30B5046A9D
:103C6000026A22F4805202624268C3690D6823F43A
:103C7000E64343EA05238D6824F4005444EA0534FE
:103C80004260C36149680164046230BD10B5036AD3
:103C9000046A24F001040462846924F0F00444EA14
:103CA000021423F00A020A438461026210BD10B5B7
:103CB000036A046A24F010040462846923F0A003F8
:103CC00024F4704444EA023243EA01118261016241
:103CD00010BD10B5406A0021C185C184FEF70DFDFD
:103CE00010BD01680C3151E8002F22F4907241E8B8
:103CF0000023002BF5D10168143151E8002F22F088
:103D0000010241E80023002BF5D1016B012909D103
:103D100001680C3151E8002F22F0100241E8002325
:103D2000002BF5D1202180F842100021016370475B
:103D30004B2801DA4B207047E12801DDE120704774
:103D400080B2704708B590F84210222901D00220B5
:103D500008BD82684FF480539A4201D1016921B1B4
:103D6000816A9A421BD04AB10AE00268816A5268AD
:103D7000C2F308020A80816A891C08E0026972B1F4
:103D80000268526802F07F020A70816A491C8162EF
:103D9000C18D491E0904090CC18503D01BE00268CE
:103DA0005268F1E70168CA6822F02002CA6001681F
:103DB000CA6822F48072CA6001684A6922F001026E
:103DC0004A61202180F8421000214163026B012AE0
:103DD00003D0FEF749FE002008BD016301680C31E5
:103DE00051E8002F22F0100241E80023002BF5D10A
:103DF00001680A68D20602D50A6849680091818D77
:103E0000FEF77AFCE7E7000010B50446FCF7E6FB96
:103E1000214682B2BDE8104064230148FEF766BE29
:103E20002006002070B5044600680169E26821F4AC
:103E30004051114301612169A06808436169084349
:103E40002168CA6841F20C639A430243CA60206841
:103E50004169A26921F44071114341611E49206802
:103E6000884202D1FEF73AF801E0FEF727F800EBAE
:103E7000C00101EB0012606864218000B2FBF0F326
:103E8000B3FBF1F36FF018067343B2FBF0F5B2FB2E
:103E9000F0F605EB8305322303EB0515B5FBF1F5D1
:103EA000B6FBF1F605F0F00505EB0615B2FBF0F6F2
:103EB000B2FBF0F0B0FBF1F06FF01802504306EBEC
:103EC000800003EB0010B0FBF1F0216800F00F0060
:103ED0002844886070BD00000038014081628285FE
:103EE000C28500214164222180F84210016921B17C
:103EF0000168CA6842F48072CA6001684A6942F087
:103F000001024A610068C16841F02001C1600020DF
:103F100070472DE9F843984617460D460446089E1B
:103F200024E0701C22D0FDF743FCA0EB0800B04257
:103F30001AD8CEB12068C168490717D5802D15D091
:103F4000402D13D00168C94309070FD4016800252B
:103F5000406800902046FFF7C4FE0820606484F8A3
:103F600040500120BDE8F8830320FBE7206800688B
:103F700035EA000004D00020B842D2D00020F1E79A
:103F80000120F9E70148FEF7B9BB00002006002038
:103F9000FEE70907090E002804DB00F1E02080F8A5
:103FA0000014704700F00F0000F1E02080F8141DAD
:103FB000704730380A2801D201207047002070472E
:103FC00008B5FDF78DFDFFF775FDFFF711F8FEF75A
:103FD000F9FFFEF7A9FFFFF759F8FFF7BDF8FFF764
:103FE00035F8FFF70FF9FFF781FCFFF7A9FC4FF455
:103FF0007A70FDF7E5FA7D48FCF736FF05227C492B
:104000007A48FDF7F5F8FFF735FA7A48FFF78AFCAA
:10401000794D2878794E00903388764C203CA278F0
:1040200021787448FFF7A0FAFFF708FBDFF8D0917A
:10403000DFF8D0A1744FDFF8B8B14FF000086D4839
:104040002038FFF737FC99F80010484619B180F87E
:104050000080FFF7D3F99AF80010504651B180F86C
:10406000008064480A30FFF75DFC217861480A301F
:10407000FFF7CAF96548017809B380F8008001208C
:10408000A0705C48FFF74EFC287800903388A27837
:1040900021785848FFF768FAFFF74CF94FF47A7027
:1040A000FDF78EFA84F802805248FFF73BFC28782F
:1040B00000903388A27821784E48FFF755FAFEF732
:1040C000CBFE60704FF480513846FDF76BFB2071DA
:1040D0004FF400513846FDF765FB60714FF48041A5
:1040E0003846FDF75FFBA0714FF400413846FDF7FD
:1040F00059FBE071607820B16078E0706069401C25
:104100006061BBF800102181BBF802106181BBF82F
:104110000410A181BBF80610E181BBF808002082E1
:104120006078012806D0022807D0032826D004286A
:104130003BD131E0FFF762F937E0A069401CA06194
:104140000120A070287800903388A278217829482F
:10415000FFF70AFAFFF7EEF84FF47A70FDF730FA3E
:1041600084F802802348FFF7DDFB2878009033882D
:10417000A27821781F48FFF7F7F916E0207830B1D0
:1041800000202070207820B1FCF74CFE0DE00120CB
:10419000F7E7FCF74AFE08E016480A30FFF7C2FBD3
:1041A000217814480A30FFF72FF9A07820B9287831
:1041B00010B90F48FFF71AFCFDF7FAFAE169401A47
:1041C000B0F5967F0DD3FDF7F3FAE0610948FFF7EC
:1041D000A9FB287800903388A27821780548FFF75A
:1041E000C3F90A20FDF7ECF929E70000C804002014
:1041F000BC040020380000204C00002014000020E7
:104200005200002050000020000C0140510000200E
:1042100010B500290AD00878002807D0054878444E
:10422000FCF722FA002801D0002010BD0248784493
:1042300010BD0000C6020000BE0200000000000029
:10424000000000005F000000000700070000147F6E
:10425000147F1400242A7F2A1200231308646200AA
:10426000364955225000000503000000001C224181
:1042700000000041221C000014083E081400080839
:104280003E08080000503000000008080808080038
:104290000060600000002010080402003E51494503
:1042A0003E0000427F4000004261514946002141EA
:1042B000454B31001814127F100027454545390041
:1042C0003C4A494930000171090503003649494912
:1042D0003600064949291E00003636000000005607
:1042E00036000000081422410000141414141400B5
:1042F00000412214080002015109060032497941A7
:104300003E007E1111117E007F49494936003E4131
:10431000414122007F4141221C007F49494941001F
:104320007F09090901003E4149497A007F080808D0
:104330007F0000417F4100002040413F01007F0895
:10434000142241007F40404040007F020C027F0069
:104350007F0408107F003E4141413E007F0909096A
:1043600006003E4151215E007F0919294600464959
:104370004949310001017F0101003F4040403F00B9
:104380001F2040201F003F4038403F0063140814A6
:104390006300070870080700615149454300007F2A
:1043A000414100000204081020000041417F00004C
:1043B00004020102040040404040400000010204A9
:1043C00000002054545478007F4844443800384456
:1043D00044442000384444487F0038545454180062
:1043E000087E090102000C5252523E007F0804046C
:1043F000780000447D4000002040443D00007F10D4
:104400002844000000417F4000007C04180478002C
:104410007C08040478003844444438007C141414A4
:104420000800081414187C007C0804040800485490
:1044300054542000043F444020003C4040207C0075
:104440001C2040201C003C4030403C0044281028E8
:1044500044000C5050503C004464544C440000084C
:104460003641000000007F000000004136080000D7
:1044700008082A1C080001020203040506070809AF
:104480000A0B0C0D0E0F10100102020304050607A3
:1044900008090A0B0C0D0E0F1010000000000000A0
:1044A00000000102030406070809000000000102E1
:1044B00003040400000800000000000000020001E6
:1044C00000001000F445000800000020700000000B
:1044D000280100086446000870000020D80C000085
:1044E000440100081001000043000000F8FFFFFF36
:1044F00000404040404040404040414141414140F7
:1045000040404040404040404040404040404040AB
:10451000400502020202020202020202020202023A
:10452000022020202020202020202002020202023F
:104530000202909090909090101010101010101097
:1045400010101010101010101010101002020202A3
:1045500002028888888888880808080808080808E7
:1045600008080808080808080808080802020202E3
:1045700040000000000000000000000000000000FB
:10458000000000000000000000000000000000002B
:10459000000000000000000000000000000000001B
:1045A000000000000000000000000000000000000B
:1045B00000000000000000000000000000000000FB
:1045C00000000000000000000000000000000000EB
:1045D00000000000000000000000000000000000DB
:1045E00000000000000000000000000000000000CB
:1045F0000000000096009600960096009600960037
:104600009600960096009600000000000000000052
:104610000101010100000000000000000000000096
:10462000000000000000000000000000960096005E
:1046300096009600960096009600960096009600CA
:104640000000000000000000960096009600960012
:1046500096000000010000001000000000000000B3
:0446600000127A00CA
:04000005080000ED02
:00000001FF
