:020000040800F2
:10000000F00B0020890100086B1C0008F91800089B
:10001000691C0008F90300086F21000800000000B7
:10002000000000000000000000000000611E000849
:1000300033040008000000007D1C00084D1F00086C
:10004000A3010008A3010008A3010008A301000800
:10005000A3010008A3010008A3010008A3010008F0
:10006000A3010008A3010008A3010008FD03000884
:10007000A3010008A3010008A3010008A3010008D0
:10008000A3010008A3010008A3010008A3010008C0
:10009000A30100080000000000000000A301000808
:1000A0000000000000000000000000000000000050
:1000B000A3010008A3010008A3010008A301000890
:1000C000A3010008A3010008A3010008A301000880
:1000D000A3010008A3010008A3010008A301000870
:1000E000A3010008A3010008A301000800F002F822
:1000F00000F03AF80AA090E8000C82448344AAF188
:100100000107DA4501D100F02FF8AFF2090EBAE885
:100110000F0013F0010F18BFFB1A43F0010318473B
:10012000CC210000EC210000103A24BF78C878C12F
:10013000FAD8520724BF30C830C144BF04680C60ED
:10014000704700000023002400250026103A28BF35
:1001500078C1FBD8520728BF30C148BF0B60704739
:100160001FB51FBD10B510BD00F058F81146FFF7C0
:10017000F7FF02F00DF800F076F803B4FFF7F2FF96
:1001800003BC00F07DF8000009488047094800479B
:10019000FEE7FEE7FEE7FEE7FEE7FEE7FEE7FEE737
:1001A000FEE7FEE704480549054A064B7047000094
:1001B000C91F0008ED000008F0050020F00B00202A
:1001C000F0070020F00700204FF0000200B51346B2
:1001D00094469646203922BFA0E80C50A0E80C5067
:1001E000B1F12001BFF4F7AF090728BFA0E80C5018
:1001F00048BF0CC05DF804EB890028BF40F8042B11
:1002000008BF704748BF20F8022B11F0804F18BF7D
:1002100000F8012B7047704770477047754600F033
:100220002BF8AE4605006946534620F00700854688
:1002300018B020B5FFF7B6FFBDE820404FF000062C
:100240004FF000074FF000084FF0000B21F00701BE
:10025000AC46ACE8C009ACE8C009ACE8C009ACE801
:10026000C0098D46704710B50446AFF300802046A4
:10027000BDE81040FFF781BF004870478C050020A3
:1002800001491820ABBEFEE72600020070470000BF
:1002900070B5044600688168C943C90717D18168F1
:1002A00021F00101816000F01DFD05460AE000BF5C
:1002B00000F018FD401B022804D920688068C04364
:1002C000C00706D020688068C043C007F0D0002077
:1002D00070BDA06A40F01000A062E06A40F001002A
:1002E000E062012070BD10B50146406A826A12F0DA
:1002F000500F05D0006A026BBDE810400846104759
:10030000816A41F40071816201688968C1F34241E8
:1003100007290CD1017B51B9816A21F48071816276
:10032000816AC90403D4816A41F00101816200F04D
:100330008FF910BD10B5406A816A41F040018162B9
:10034000C16A41F00401C16200F084F910BD10B52A
:10035000406A00F07EF910BDF8B50026044600960C
:1003600000688168C943C9072DD0816841F0010147
:100370008160164816490068B0FBF1F000E0401EAD
:1003800000900028FBD100F0ADFC054616E000BF50
:1003900000F0A8FC401B022810D920688068C043E8
:1003A000C0070BD0A06A40F01000A062E06A40F0E5
:1003B0000100E06284F824600120F8BD20688068B4
:1003C000C043C007E4D10020F8BD00002C0000208D
:1003D00040420F0030B440F6FF74B0F5805F00D3A8
:1003E0002046551A4543B5FBF4F008440BB18B1871
:1003F000181A30BC01F03ABCFEE70000014800F0DA
:1004000069BA00006C00002030B590F8405001241B
:10041000AC40C56B6C60046863604368102B036874
:1004200003D099600068C26030BD9A600068C16006
:1004300030BD704772B6FEE7322000F003B88C2062
:10044000AFF3008010B5322801D2322002E08C28B0
:1004500000D98C200849096888630421064801F006
:10046000E1F94FF47A7000F045FBBDE8104004213B
:10047000014801F019BA0000F8000020F8B5002585
:100480000446009590F8240001280BD0012084F840
:1004900024002046FFF7FCFE2046FFF75DFF060024
:1004A00002D050E00220F8BDA06A20F4885040F04D
:1004B0000200A062022000F0B3FC25490968B1FBEC
:1004C000F0F0400000E0401E00900028FBD12068C2
:1004D000816841F00801816000F004FC074608E0F3
:1004E00000F000FCC01B0A2803D9206880680007C0
:1004F00015D4206880680007F2D42068816841F034
:100500000401816000F0EEFB074612E000F0EAFB18
:10051000C01B0A280DD920688068400709D5A06A49
:1005200020F0020040F01000A06284F82450012066
:10053000F8BD206880684007E8D4A06A20F0020077
:1005400040F00100A06284F824503046F8BD00005D
:100550002C000020F8B50024009490F824202546B3
:10056000012A12D0012280F824204A681F23072A7A
:100570000DD20668776B521E02EB820293409F43B6
:100580000B6893401F43776319E00220F8BD0668AB
:100590000D2A0AD2376BD21F02EB820293409F438F
:1005A0000B6893401F43376309E0F76A0D3A02EB8B
:1005B000820293409F430B6893401F43F7620A688F
:1005C000072306680A2A0AD3F7680A3A02EB4202AE
:1005D00093409F438B6893401F43F76008E037695F
:1005E00002EB420293409F438B6893401F43376165
:1005F0000A68102A01D0112A20D1124B02689A42AF
:1006000017D193681B0219D4936843F400039360D5
:100610000968102912D10C490C4A0968B1FBF2F1A2
:1006200001EB8101490000E0491E00910029FBD146
:1006300004E0816A41F020018162012480F82450A5
:100640002046F8BD002401402C00002040420F004D
:1006500070477047704700002DE9F0414FF00007E8
:1006600004003D467ED0A06A002628B9E66284F8E0
:100670002460204600F07EF82046FFF709FEA16ABC
:10068000C90600D420B1A06A40F01000A06269E061
:10069000A16A21F4885141F00201A1626268E16916
:1006A000237B0A4347EA43010A43A1684FF480775A
:1006B000B94209D0012907D05FF0000194F814C0B5
:1006C000BCF1010F02D00AE03946F7E7F3B1A36AA3
:1006D00043F02003A362E36A43F00103E36223686B
:1006E000D3F804C02CF4694C4CEA010CC3F804C0E4
:1006F00021688B68DFF870C003EA0C0313438B603A
:10070000A168B9420BD0012909D00CE0DFF85CC028
:10071000A3690CEB43330B4343F40061DFE7218A09
:100720000D05A5F580152168CB6A23F470032B43D2
:10073000CB62216889680E4B1940914208D1E6626C
:10074000A16A21F0020141F00101A162BDE8F0813E
:10075000A06A20F0020040F01000A062E06A40F0C1
:100760000100E0620120F1E7FDF7E1FF00E0FFFF9B
:10077000FE0E1FFF70B586B0002506460095019558
:100780000295039500681A4988422ED11949886953
:1007900040F400708861886900F4007004908869F2
:1007A00040F0040088618869694600F00400049004
:1007B0001F200090032001900F4800F0ADF9104C6D
:1007C0000E48C4E900058020C4E9025040002061C1
:1007D000800060612020C4E90605204600F024F96D
:1007E00008B1FFF727FE3462666206B070BD0000F4
:1007F00000240140001002400008014008000240AF
:100800006C0000202DE9F041044690F824001646C3
:100810000F4601280ED0012084F824002046FFF75F
:100820009BFD05004FF0000006D084F82400284608
:10083000BDE8F0810220FBE7A16A40F60162914326
:1008400041F48071A162A16A21F48011A162216842
:100850004968490505D5A16A21F4005141F4805148
:10086000A162A16AC90404D5E16A21F00601E1622E
:1008700000E0E06284F82400216A13488862216A5B
:100880001248C862216A1248086321686FF00200AA
:1008900008602068816841F4807181602168334676
:1008A0003A464C31206A00F0EDF820688168C1F3C7
:1008B00042410729816803D041F480118160B6E785
:1008C00041F4A001FAE70000E70200084F03000826
:1008D000350300082DE9F05FC16B0C6801680B68F7
:1008E000D0F840C0042202FA0CF2494DDFF824A1EE
:1008F000494E4A4FDFF828B1DFF828E122422CD0D8
:100900005A072AD50A68920603D40A6822F004021C
:100910000A600168A94201D1042219E0514501D1C0
:10092000402215E0B14202D14FF4806210E0B9429A
:1009300002D14FF480420BE0594502D14FF480229E
:1009400006E0714502D14FF4800201E04FF0806271
:100950002F4908394A60C16A3BE04FF0020808FAA3
:100960000CF818EA040F4FF000094FF0010235D0DF
:100970005FEA837832D50B689B0605D40B6823F0B9
:100980000A030B6080F821200168A94201D10222EC
:1009900019E0514501D1202215E0B14202D14FF4B6
:1009A000007210E0B94202D14FF400520BE05945F9
:1009B00002D14FF4003206E0714502D14FF400122B
:1009C00001E04FF00072124908394A6080F8209027
:1009D000816A00291AD0BDE8F05F0847082505FAAA
:1009E0000CF5254212D01B0710D50B6823F00E031F
:1009F0000B6090F84010C36B02FA01F159608263FA
:100A000080F8212080F82090016BE2E7BDE8F09F9C
:100A1000080002401C000240300002404400024036
:100A2000580002406C00024030B528B308C8134992
:100A300014221944B1FBF2F18900C16310498163AA
:100A4000022141771A6843F6F0718A43D0E9001415
:100A50002143D0E902452C432143046921434469E1
:100A6000214384692143114319600021416301221C
:100A700042770177084630BD012030BDF8FFFDBF49
:100A80000000024070B5044690F8200000250128BF
:100A90000CD0012084F8200094F821600020012E61
:100AA00006D084F820000225284670BD022070BDC3
:100AB000022684F82160A0632068066826F00106FB
:100AC00006602046FFF7A0FCE06A00282068016865
:100AD00002D041F00E0106E021F00401016020681F
:100AE000016841F00A0101602068016841F00101DC
:100AF0000160D9E770B5044600F0F4F80546601CC3
:100B000002D004480078044400F0ECF8401BA042F6
:100B1000FAD370BD200000202DE9F84FDFF89C913A
:100B20000024A9F1040B23460F2709F1040AABF1B5
:100B3000040EBBE00125A5402A40AA4276D1DFF889
:100B400080C14E68A6EB0C0866452BD00DDC032E49
:100B500034D005DC36B3012E19D0022E2FD11BE084
:100B6000112E16D0122E2AD119E0B8F5881F19D0EF
:100B700006DCB8F5803F15D0B8F5801F1FD111E015
:100B8000B8F5001F0ED0B8F5041F18D10AE0CB68E5
:100B900015E0CB681B1D12E0CB6808330FE0CB6873
:100BA0000C330CE08B682BB1012B4FF0080303D002
:100BB000456104E0042302E0056100E00023FF2A10
:100BC00001D8064601E000F104064FEA840501D988
:100BD000A5F12005D6F8008007FA05FC28EA0C08E4
:100BE00003FA05F548EA0508C6F800804D68ED00EF
:100BF0005BD5344DAE6946F00106AE61AD6924F0B7
:100C0000030605F0010500952F4D06EB050CDCF8F9
:100C10000850A607360F07FA06F825EA0805DFF898
:100C2000AC80404503D14FF0000810E03DE0DFF814
:100C3000A080404502D14FF0010808E0DFF8948021
:100C4000404502D14FF0020801E04FF0030808FAD6
:100C500006F848EA0508CCF808804D68D9F8006025
:100C6000ED024D4601D5164300E096432E604D68D7
:100C7000DAF80060AD02554601D5164300E0964310
:100C80002E604D68DBF80060AD035D4601D516436C
:100C900000E096432E604D68DEF80060ED03754677
:100CA00001D5164300E096432E60641C0A6832FAB0
:100CB00004F57FF43FAFBDE8F88F00000804014061
:100CC0000000111000100240000001400008014027
:100CD000000C0140001001408068084000D0012055
:100CE0007047000001488068704700002000002025
:100CF000024881680278114481607047200000201A
:100D0000074810B5016841F010010160032000F0B0
:100D100075F80F2000F006F800F024F8002010BD50
:100D20000020024070B50D4D04464FF47A712878CA
:100D3000B1FBF0F00A490968B1FBF0F000F094FB58
:100D400048B9102C07D200222146501E00F036F878
:100D500000206C6070BD012070BD000020000020EC
:100D60002C0000200C4808B5816941F00101816127
:100D7000816901F001010091C16941F08051C161B7
:100D8000C06900F0805000900448416821F0E061A3
:100D900041F00071416008BD0010024000000140B8
:100DA000002809DB00F01F0201219140400980006A
:100DB00000F1E020C0F8001170470000F0B40E4BC5
:100DC0001B680C46C3F30223C3F10705042D00D9A9
:100DD0000425191D072901D2002300E0DB1E01268E
:100DE00006FA05F1491E214099409E40761E1640A4
:100DF0003143F0BC01F0BCB90CED00E0064900F055
:100E0000070208684FF6FF03184040EA0220034A31
:100E100010430860704700000CED00E00000FA0588
:100E200010B501460020234C012922D0022939D0D7
:100E300010291DD161682268D20119D51E48C1F35D
:100E40008342C903805C0AD561681B4AC1F34041F3
:100E5000921E515C194AB2FBF1F1484301E0184976
:100E600048436168490203D440000321B0FBF1F01C
:100E700010BD226AC2F30121012903D1920701D5D5
:100E8000C80310BD022905D1626A920702D549F64E
:100E9000404010BD0329FCD121688903F9D54FF2E8
:100EA000244010BD00F01AF96168C1F38131491C7A
:100EB0004900DBE700100240C422000800127A005B
:100EC00000093D002DE9F84305460078354CC00780
:100ED00054D0E0690026C00008D4E06940F080509A
:100EE000E061E069012600F0805000902E48016822
:100EF000C90512D40168804641F480710160FFF792
:100F0000F1FE074605E000BFFFF7ECFEC01B6428BA
:100F100023D8D8F80000C005F6D5206A10F4407038
:100F200021D0A98801F4407181421CD0206A1F4958
:100F3000012220F440700A6000220A602062C0078B
:100F400011D0FFF7CFFE074641F2883808E000BF16
:100F5000FFF7C8FEC11B414502D90320BDE8F88355
:100F6000206A8007F4D5206A696820F4407008433D
:100F700020621EB1E06920F08050E061287880078F
:100F800005D56068A96820F440400843606028786F
:100F9000C00605D56068E96820F4800008436060F9
:100FA0000020DBE700100240007000404004424295
:100FB0002DE9F0470F46050061D0434E306800F040
:100FC0000700B84209D2306820F00700384330608B
:100FD000306800F00700B84251D128683B4C8107C7
:100FE00012D5400703D5606840F4E060606028785F
:100FF000000703D5606840F4605060606068A968CD
:1010000020F0F000084360602878C00728D06868A6
:10101000012810D02168022810D0890700292EDA73
:10102000616821F0030101436160FFF75BFE8046C8
:1010300041F288390DE021688903EFE78901EDE786
:10104000FFF750FEA0EB0801494502D90320BDE897
:10105000F0876068696800F00C00B0EB810FEFD199
:10106000306800F00700B8420BD9306820F0070064
:1010700038433060306800F00700B84201D00120EA
:10108000E5E72878400705D56068E96820F4E06066
:10109000084360602878000706D56068296920F455
:1010A000605040EAC100606000F028F86168084ABA
:1010B000C1F30311515CC840064908600648006846
:1010C000FFF730FE0020C2E700200240001002407F
:1010D000D42200082C0000202400002004480549E8
:1010E00000684968044AC1F3C221515CC840704796
:1010F0002C00002000100240E42200080E4A516833
:101100000E4801F00C03042B11D0082B0FD10C4812
:10111000C1F38343C903C05C0AD55168084AC1F3CF
:101120004041921E515C054A5043B0FBF1F07047BC
:1011300004494843704700000010024000127A0042
:10114000B222000800093D002DE9F84F040070D0DC
:101150002078C04DC00749D06868C0F381000128DD
:1011600007D06868C0F38100022809D16868C0030D
:1011700006D52868800339D560680028E7D035E0B7
:101180006068B0F5803F0BD010B1B0F5A02F11D042
:10119000286820F480302860286820F4802002E04D
:1011A000286840F480302860606890B1FFF79AFDAD
:1011B00006460AE0286840F480202860F0E700BF77
:1011C000FFF790FD801B642873D828688003F7D54B
:1011D0000CE0FFF787FD064605E000BFFFF782FD44
:1011E000801B6428F0D828688003F7D420789A4EB2
:1011F00080074FF001094FF0000839D5686810F0FA
:101200000C0F07D06868C0F38100022809D1686814
:10121000C00306D42868800714D52069012808D1A6
:1012200010E02069B0B1C6F80090FFF75BFD0746FB
:1012300005E00AE1FFF756FDC01B0228C4D8286864
:101240008007F7D52868616920F0F80040EAC100FE
:1012500028600DE0C6F80080FFF744FD074604E073
:10126000FFF740FDC01B022823D828688007F7D469
:10127000207800072CD57948A169D9B1C0F8009031
:10128000FFF730FD074604E0FFF72CFDC01B0228E6
:101290000FD8686A8007F7D571484FF4FA51006893
:1012A000B0FBF1F0009000BF0098411E0091FAD20F
:1012B0000EE080E0C0F80080FFF714FD074604E070
:1012C000FFF710FDC01B022875D8686A8007F7D4A5
:1012D0002078400760D5E8690027C00008D4E86995
:1012E00040F08050E861E869012700F080500090EC
:1012F0005C480168C90513D40168834641F48071D4
:101300000160FFF7EFFC824606E000BFFFF7EAFC52
:10131000A0EB0A0064284ED8DBF80000C005F5D524
:10132000E06801280AD008B1052813D0286A20F007
:1013300001002862286A20F0040002E0286A40F0D8
:1013400001002862E06841F2883B98B1FFF7CAFCCF
:1013500082460BE0286A40F004002862EEE700BFF6
:10136000FFF7C0FCA0EB0A0159455AD8286A80074C
:10137000F6D50CE0FFF7B6FC824605E0FFF7B2FCBD
:10138000A0EB0A0159454CD8286A8007F6D41FB152
:10139000E86920F08050E861E06988B36968C1F3CA
:1013A0008101022944D00228C6F8608004D0FFF7EA
:1013B00099FC044638E034E0FFF794FC074604E06B
:1013C000FFF790FCC01B02282BD828688001F7D4B7
:1013D000206AB0F5803F05D16868A16820F400302C
:1013E00008436860D4E908010843696821F474116E
:1013F00008436860C6F86090FFF774FC044606E096
:1014000025E000BFFFF76EFC001B022809D8286802
:101410008001F7D51BE000BFFFF764FC001B02282A
:1014200002D90320BDE8F88F28688001F4D40EE0CB
:101430000128F7D06868226A00F48031914204D113
:10144000616A00F47010884201D00120EAE70020B0
:10145000E8E70000001002400000424280044242DF
:101460002C0000200070004010B5401EB0F1807FBD
:1014700001D3012010BD4FF0E02460610F216017FF
:1014800000F076FE0020A06107202061002010BD42
:1014900070B590F83C20012A23D0012480F83C400C
:1014A000022280F83D2003685A689D6822F0700689
:1014B0000A6832435A600268B2F1804F05D00A4B85
:1014C0009A4202D0094B9A4204D1496825F0800320
:1014D0001943916080F83D40002180F83C10084697
:1014E00070BD022070BD00000004004000080040F4
:1014F00010B5040003D094F83D0010B107E00120BE
:1015000010BD002084F83C00204600F01FF80220A7
:1015100084F83D00211D206800F058FD012084F86A
:10152000460084F83E0084F83F0084F8400084F8C8
:10153000410084F8420084F8430084F8440084F8B1
:10154000450084F83D00002010BD000008B50C4A9D
:1015500001680C48914207D1C16941F00201C161A3
:10156000C06900F0020009E0074A914207D1C16951
:1015700041F00401C161C06900F00400009008BDA1
:1015800000040040001002400008004070B504460E
:1015900090F83C000025012817D0012684F83C6013
:1015A000022084F83D002068826822F0770222F44D
:1015B0007F4282600868502838D00DDC20284FD048
:1015C00005DC90B3102811D14AE0022070BD30280C
:1015D00046D040280AD13BE060282FD070280DD09B
:1015E000B0F5805F03D0B0F5005F12D0012584F81C
:1015F0003D60002084F83C00284670BDCB68D1E9EE
:101600000121206800F021FD2068816841F0770108
:1016100009E0CB68D1E90121206800F016FD2068BF
:10162000816841F480418160E1E719E0CA68496856
:10163000206800F079FD5021206806E0CA684968FA
:10164000206800F082FD6021206800F008FDCEE7F0
:10165000CA684968206800F067FD40212068F4E707
:10166000226801461046F0E730B585B000210091B0
:101670000191029103911C4B02681C49C020022475
:101680001B4D9A421BD18A6942F004028A618A6921
:1016900002F0040204928A6942F008028A618969B0
:1016A000CDE9000401F00801CDE903416946114884
:1016B000FFF732FA0320CDE9000403940DE00E4B4E
:1016C0009A420ED18A6942F008028A618969CDE99D
:1016D000000401F00801CDE9034169462846FFF7FF
:1016E0001BFA05B030BD00000004004000100240AD
:1016F000000C0140000801400008004070B504469D
:1017000090F83C0000260D4601280FD0012084F8F7
:101710003C006AB1042A1DD0082A2FD00C2A3FD0E1
:101720000126002084F83C00304670BD022070BDC8
:10173000206800F09CFC2068816941F0080181610B
:101740002068816921F004018161206881692A692A
:10175000114311E0206800F0A0FC2068816941F489
:10176000006181612068816921F480618161206864
:1017700081692A6941EA02218161D2E7206800F08B
:10178000A4FC2068C16941F00801C1612068C169F9
:1017900021F00401C1612068C1692A69114311E087
:1017A000206800F0A9FC2068C16941F40061C161B2
:1017B0002068C16921F48061C1612068C1692A691A
:1017C00041EA0221C161ACE710B5040003D094F8EE
:1017D0003D0010B107E0012010BD002084F83C005E
:1017E000204600F01EF8022084F83D00211D2068EC
:1017F00000F0ECFB012084F8460084F83E0084F8F9
:101800003F0084F8400084F8410084F8420084F8E6
:10181000430084F8440084F8450084F83D0000202B
:1018200010BD704710B50446022249B104290ED0FC
:10183000082913D094F84100012816D0012010BDCA
:1018400094F83E000128F9D184F83E200FE094F886
:101850003F000128F2D184F83F2008E094F84000CE
:101860000128EBD184F8402001E084F841200122D6
:10187000206800F0DDFB2068B0F1804F05D00849FA
:10188000884202D00749884204D1816801F00701EB
:10189000062903D0016841F001010160002010BD5C
:1018A000000400400008004030B504460D460068C2
:1018B000002200F0BDFB2068016A41F211121142C2
:1018C00007D1016A9210114203D1016821F0010190
:1018D000016001203DB1042D08D0082D09D084F805
:1018E0004100002030BD84F83E00FAE784F83F0054
:1018F000F7E784F84000F4E7FEE700002DE9F04147
:10190000314C4FF48056002531462046FFF7E4F96C
:1019100070B91420FFF7EEF831462046FFF7DCF9E6
:1019200030B9012531462046FFF7D6F90028F9D015
:101930004FF4005631462046FFF7CEF990B91420F7
:10194000FFF7D8F831462046FFF7C6F950B902250F
:1019500031462046FFF7C0F90028F9D04FF49670C1
:10196000FFF7C8F84FF4804631462046FFF7B4F938
:1019700070B91420FFF7BEF831462046FFF7ACF9E6
:1019800030B9032531462046FFF7A6F90028F9D0E3
:101990004FF40047394626462046FFF79DF978B9AF
:1019A0001420FFF7A7F83C4639463046FFF794F974
:1019B00030B9042521463046FFF78EF90028F9D0CA
:1019C0002846BDE8F0810000000C0140FEB500246F
:1019D0002448009401942249029401608915816091
:1019E000012505730475052606614FF460214460E6
:1019F000C161FEF731FE08B1FEF71CFD8DE87000F5
:101A000069461848FEF7A6FD08B1FEF713FD02244B
:101A1000CDE9005469461348FEF79CFD08B1FEF776
:101A200009FD0094032469460E480194FEF792FDD7
:101A300008B1FEF7FFFC00940424694609480194AC
:101A4000FEF788FD08B1FEF7F5FCCDE900466946D2
:101A50000448FEF77FFD002801D0FEF7EBFCFEBD39
:101A6000002401403C000020094808B5416941F0CC
:101A7000010141614069002200F00100009011461F
:101A80000B20FFF79BF9BDE808400B20FFF788B952
:101A90000010024000B585B000200190039012486C
:101AA000816941F020018161816901F02001049187
:101AB000816941F004018161816901F004010491AF
:101AC000816941F0080181618069694600F0080080
:101AD00004904FF470400090012002900348FFF7FB
:101AE0001BF805B000BD000000100240000C0140D2
:101AF00010B58EB000240794089409940A940B94AE
:101B00001C2168460C94FEF75FFB2B4829490160B5
:101B100040F2CF21C0E9011440F2CF71C0E90314B3
:101B20008461FFF7E5FC08B1FEF784FC4FF48050B8
:101B3000079007A92048FFF729FD08B1FEF77AFCB6
:101B40001D48FFF741FE08B1FEF774FC0B940BA98A
:101B500019480C94FFF79CFC08B1FEF76BFC602061
:101B6000CDE9000402940022694613480494FFF76B
:101B7000C5FD08B1FEF75EFC042269460E48FFF77A
:101B8000BDFD08B1FEF756FC082269460A48FFF77A
:101B9000B5FD08B1FEF74EFC0C2269460648FFF77A
:101BA000ADFD08B1FEF746FC0348FFF75DFD0EB042
:101BB00010BD000000040040B000002010B58EB041
:101BC00000240794089409940A940B941C216846F5
:101BD0000C94FEF7F9FA23482149016040F2CF2125
:101BE000C0E9011440F2CF71C0E903148461FFF72A
:101BF0007FFC08B1FEF71EFC4FF48050079007A948
:101C00001848FFF7C3FC08B1FEF714FC1548FFF7AE
:101C1000DBFD08B1FEF70EFC0B940BA911480C94E8
:101C2000FFF736FC08B1FEF705FC6020CDE90004A3
:101C30000294002269460B480494FFF75FFD08B147
:101C4000FEF7F8FB042269460648FFF757FD08B186
:101C5000FEF7F0FB0348FFF707FD0EB010BD0000D4
:101C600000080040F8000020FEE7FEE7884200DAA6
:101C70000846904200DD104680B270477047000071
:101C80002DE9F04F554887B0018802297ED3002501
:101C900097E000BF524E05EB8504012336F814008F
:101CA000DC225021FEF796FB06EB44048346608855
:101CB0000123DC225021FEF78DFB8246A088012300
:101CC000DC225021FEF786FB8146E0880123DC22DE
:101CD0005021FEF77FFB074620890123DC2250219B
:101CE000FEF778FB064660890123DC225021FEF7CF
:101CF00071FB8046A0890123DC225021FEF76AFB9C
:101D00000290E0890123DC225021FEF763FB019061
:101D1000208A0123DC225021FEF75CFB0090608AC0
:101D20000123DC225021FEF755FBA8EB0B010491A7
:101D300002990024A1EB0A0103910199A1EB090189
:101D400002910099C91B801B0591019004984FF0E6
:101D5000640C604390FBFCF101EB0B00039980B233
:101D6000614391FBFCF202EB0A01029A89B26243E1
:101D700092FBFCF303EB0902059B92B2634393FBD6
:101D8000FCF33B449BB2DDF8048000E01FE008FB5D
:101D900004F898FBFCFCB4441FFA8CFCCDF800C09E
:101DA00000F08EF80F20FEF7A5FE641CA4B2642C90
:101DB000CCD90C482844407860B1FEF73DFB6D1C3F
:101DC000ADB206480088401E8542FFF663AF07B0FB
:101DD000BDE8F08FFEF733FBF1E700001C000020A8
:101DE000400100202805002001490020088070479C
:101DF0001C00002030B5174A1388642B28D20488B1
:101E0000138803EB8305144B23F815404488158889
:101E100005EB850503EB45056C808488158805EB8B
:101E2000850503EB4505AC80C488158805EB850561
:101E300003EB4505EC800089148804EB840403EB74
:101E40004403188105481388C1541088401C108031
:101E500030BD00001C0000204001002028050020AB
:101E600070470000064996200A6850630A6890632C
:101E70000A68D063096808640249096848637047C2
:101E8000B0000020F800002010B500210A48FFF73C
:101E9000C9FC04210848FFF7C5FC08210648FFF7E4
:101EA000C1FC0C210448FFF7BDFCBDE81040002137
:101EB0000248FFF7B7BC0000B0000020F800002087
:101EC00070B5074C049D26687063206881632068A4
:101ED000C2632068036403480068456370BD000066
:101EE000B0000020F800002030B50446008801232F
:101EF000DC225021FEF76EFA124D29684863608893
:101F00000123DC225021FEF765FA29688863A08846
:101F10000123DC225021FEF75DFA2968C863E088BE
:101F20000123DC225021FEF755FA29680864208934
:101F30000123DC225021FEF74DFA0349096848636A
:101F400030BD0000B0000020F8000020FEF7D0BE39
:101F500030B593B028216846FEF736F914210AA857
:101F6000FEF732F9002501200F9510951195010417
:101F700012958DE8230004904FF4E010CDE908108D
:101F8000022407946846FFF7DFF808B172B6FEE74F
:101F90000AA90F2081E831004FF48060CDE90D05DA
:101FA00002210AA8FFF704F808B172B6FEE74FF461
:101FB000004011900F940FA8FEF784FF002801D075
:101FC00072B6FEE713B030BD7047000070B502680E
:101FD0004FF08046144B154CB04203D0984201D0CC
:101FE000A04205D122F070054A682A43B04203D0CE
:101FF000984201D0A04203D122F44073CA681A4328
:102000004B6922F080021A4302608A68C262096842
:102010008162012141610169C90703D0016921F091
:102020000101016170BD0000000400400008004093
:1020300010B501F01F030121046A99408C4304622A
:10204000016A9A401143016210BD10B5846842EAEA
:10205000032224F47F440A432243826010BD826835
:1020600022F070020A4342F007018160704730B5E8
:10207000036A026A22F0010202624468826922F065
:1020800073050A682A4323F002058B6844602B43DA
:10209000826149684163036230BD30B5046A026AF7
:1020A00022F010020262426883690D6823F4E6435D
:1020B00043EA05238D6824F0200444EA05144260B5
:1020C000836149688163046230BD30B5046A026A85
:1020D00022F4807202624368C26924F4007422F020
:1020E00073050A682A438D68436044EA0524C26187
:1020F0004968C163046230BD30B5046A026A22F4E3
:10210000805202624268C3690D6823F4E64343EAE1
:1021100005238D6824F4005444EA05344260C36109
:1021200049680164046230BD10B5036A046A24F092
:1021300001040462846924F0F00444EA021423F0E8
:102140000A020A438461026210BD10B5036A046A80
:1021500024F010040462846923F0A00324F4704482
:1021600044EA023243EA01118261016210BDFEE7D6
:102170000907090E002804DB00F1E02080F80014B4
:10218000704700F00F0000F1E02080F8141D704748
:10219000FEF7B6FDFFF7DCFEFFF77CFCFFF764FC03
:1021A000FFF714FCFFF7A4FCFFF708FDFFF75AFE4A
:1021B000FFF76AFE4FF47A773846FEF79BFC384803
:1021C000FEF75CF9052237493548FEF71BFB4FF453
:1021D0008058354E4FF400594FF4804A4FF4004B6D
:1021E000304D324CFFF78AFB607041463046FEF7B7
:1021F00073FD207149463046FEF76EFD6071514611
:102200003046FEF769FDA07159463046FEF764FD81
:10221000E071607820B16078E0706069401C6061B6
:102220002888208168886081A888A081E888E0816A
:10223000288920826078012806D0022807D0032848
:1022400012D0042822D11DE0FFF7CEFD1EE0A069C8
:10225000401CA0610120A070FFF712FD3846FEF778
:1022600049FC0020A07011E0207830B100202070DF
:10227000207820B1FEF7E0F808E00120F7E7FEF74C
:10228000DEF803E021780748FFF7B4FDA07810B925
:102290000448FFF729FE1420FEF72CFCA2E70000FB
:1022A0003C00002030000020000C01400000002015
:1022B000010202030405060708090A0B0C0D0E0FA4
:1022C0001010010202030405060708090A0B0C0D91
:1022D0000E0F1010000000000000000001020304B7
:1022E0000607080900000000010203040C2300088F
:1022F0000000002030000000280100083C230008F6
:1023000030000020C00B0000440100080000000065
:1023100001010101000000000000000000000000B9
:1023200000000000000000000000000001000000AC
:0C233000100000000000000000127A0005
:04000005080000ED02
:00000001FF
